{
  "address": "0x6757965A95F0fe0049C31a55dB991C3050B6AE28",
  "abi": [
    {
      "inputs": [
        {
          "internalType": "address",
          "name": "_router",
          "type": "address"
        }
      ],
      "stateMutability": "nonpayable",
      "type": "constructor"
    },
    {
      "anonymous": false,
      "inputs": [
        {
          "indexed": true,
          "internalType": "address",
          "name": "owner",
          "type": "address"
        },
        {
          "indexed": true,
          "internalType": "address",
          "name": "spender",
          "type": "address"
        },
        {
          "indexed": false,
          "internalType": "uint256",
          "name": "value",
          "type": "uint256"
        }
      ],
      "name": "Approval",
      "type": "event"
    },
    {
      "anonymous": false,
      "inputs": [
        {
          "indexed": true,
          "internalType": "uint256",
          "name": "epoch",
          "type": "uint256"
        },
        {
          "indexed": false,
          "internalType": "uint256",
          "name": "totalSupply",
          "type": "uint256"
        }
      ],
      "name": "LogRebase",
      "type": "event"
    },
    {
      "anonymous": false,
      "inputs": [
        {
          "indexed": true,
          "internalType": "address",
          "name": "previousOwner",
          "type": "address"
        },
        {
          "indexed": true,
          "internalType": "address",
          "name": "newOwner",
          "type": "address"
        }
      ],
      "name": "OwnershipTransferred",
      "type": "event"
    },
    {
      "anonymous": false,
      "inputs": [
        {
          "indexed": true,
          "internalType": "address",
          "name": "from",
          "type": "address"
        },
        {
          "indexed": true,
          "internalType": "address",
          "name": "to",
          "type": "address"
        },
        {
          "indexed": false,
          "internalType": "uint256",
          "name": "value",
          "type": "uint256"
        }
      ],
      "name": "Transfer",
      "type": "event"
    },
    {
      "inputs": [],
      "name": "DECIMALS",
      "outputs": [
        {
          "internalType": "uint256",
          "name": "",
          "type": "uint256"
        }
      ],
      "stateMutability": "view",
      "type": "function"
    },
    {
      "inputs": [],
      "name": "MAX_UINT256",
      "outputs": [
        {
          "internalType": "uint256",
          "name": "",
          "type": "uint256"
        }
      ],
      "stateMutability": "view",
      "type": "function"
    },
    {
      "inputs": [],
      "name": "RATE_DECIMALS",
      "outputs": [
        {
          "internalType": "uint8",
          "name": "",
          "type": "uint8"
        }
      ],
      "stateMutability": "view",
      "type": "function"
    },
    {
      "inputs": [],
      "name": "_autoAddLiquidity",
      "outputs": [
        {
          "internalType": "bool",
          "name": "",
          "type": "bool"
        }
      ],
      "stateMutability": "view",
      "type": "function"
    },
    {
      "inputs": [],
      "name": "_autoRebase",
      "outputs": [
        {
          "internalType": "bool",
          "name": "",
          "type": "bool"
        }
      ],
      "stateMutability": "view",
      "type": "function"
    },
    {
      "inputs": [],
      "name": "_decimals",
      "outputs": [
        {
          "internalType": "uint8",
          "name": "",
          "type": "uint8"
        }
      ],
      "stateMutability": "view",
      "type": "function"
    },
    {
      "inputs": [],
      "name": "_initRebaseStartTime",
      "outputs": [
        {
          "internalType": "uint256",
          "name": "",
          "type": "uint256"
        }
      ],
      "stateMutability": "view",
      "type": "function"
    },
    {
      "inputs": [],
      "name": "_lastAddLiquidityTime",
      "outputs": [
        {
          "internalType": "uint256",
          "name": "",
          "type": "uint256"
        }
      ],
      "stateMutability": "view",
      "type": "function"
    },
    {
      "inputs": [],
      "name": "_lastRebasedTime",
      "outputs": [
        {
          "internalType": "uint256",
          "name": "",
          "type": "uint256"
        }
      ],
      "stateMutability": "view",
      "type": "function"
    },
    {
      "inputs": [],
      "name": "_name",
      "outputs": [
        {
          "internalType": "string",
          "name": "",
          "type": "string"
        }
      ],
      "stateMutability": "view",
      "type": "function"
    },
    {
      "inputs": [],
      "name": "_rebasePercentage",
      "outputs": [
        {
          "internalType": "uint256",
          "name": "",
          "type": "uint256"
        }
      ],
      "stateMutability": "view",
      "type": "function"
    },
    {
      "inputs": [],
      "name": "_symbol",
      "outputs": [
        {
          "internalType": "string",
          "name": "",
          "type": "string"
        }
      ],
      "stateMutability": "view",
      "type": "function"
    },
    {
      "inputs": [],
      "name": "_totalSupply",
      "outputs": [
        {
          "internalType": "uint256",
          "name": "",
          "type": "uint256"
        }
      ],
      "stateMutability": "view",
      "type": "function"
    },
    {
      "inputs": [
        {
          "internalType": "address",
          "name": "owner_",
          "type": "address"
        },
        {
          "internalType": "address",
          "name": "spender",
          "type": "address"
        }
      ],
      "name": "allowance",
      "outputs": [
        {
          "internalType": "uint256",
          "name": "",
          "type": "uint256"
        }
      ],
      "stateMutability": "view",
      "type": "function"
    },
    {
      "inputs": [
        {
          "internalType": "address",
          "name": "spender",
          "type": "address"
        },
        {
          "internalType": "uint256",
          "name": "value",
          "type": "uint256"
        }
      ],
      "name": "approve",
      "outputs": [
        {
          "internalType": "bool",
          "name": "",
          "type": "bool"
        }
      ],
      "stateMutability": "nonpayable",
      "type": "function"
    },
    {
      "inputs": [],
      "name": "autoLiquidityReceiver",
      "outputs": [
        {
          "internalType": "address",
          "name": "",
          "type": "address"
        }
      ],
      "stateMutability": "view",
      "type": "function"
    },
    {
      "inputs": [
        {
          "internalType": "address",
          "name": "who",
          "type": "address"
        }
      ],
      "name": "balanceOf",
      "outputs": [
        {
          "internalType": "uint256",
          "name": "",
          "type": "uint256"
        }
      ],
      "stateMutability": "view",
      "type": "function"
    },
    {
      "inputs": [],
      "name": "blackHole",
      "outputs": [
        {
          "internalType": "address",
          "name": "",
          "type": "address"
        }
      ],
      "stateMutability": "view",
      "type": "function"
    },
    {
      "inputs": [
        {
          "internalType": "address",
          "name": "",
          "type": "address"
        }
      ],
      "name": "blacklist",
      "outputs": [
        {
          "internalType": "bool",
          "name": "",
          "type": "bool"
        }
      ],
      "stateMutability": "view",
      "type": "function"
    },
    {
      "inputs": [],
      "name": "burnFee",
      "outputs": [
        {
          "internalType": "uint256",
          "name": "",
          "type": "uint256"
        }
      ],
      "stateMutability": "view",
      "type": "function"
    },
    {
      "inputs": [
        {
          "internalType": "address",
          "name": "_addr",
          "type": "address"
        }
      ],
      "name": "checkFeeExempt",
      "outputs": [
        {
          "internalType": "bool",
          "name": "",
          "type": "bool"
        }
      ],
      "stateMutability": "view",
      "type": "function"
    },
    {
      "inputs": [],
      "name": "decimals",
      "outputs": [
        {
          "internalType": "uint8",
          "name": "",
          "type": "uint8"
        }
      ],
      "stateMutability": "view",
      "type": "function"
    },
    {
      "inputs": [
        {
          "internalType": "address",
          "name": "spender",
          "type": "address"
        },
        {
          "internalType": "uint256",
          "name": "subtractedValue",
          "type": "uint256"
        }
      ],
      "name": "decreaseAllowance",
      "outputs": [
        {
          "internalType": "bool",
          "name": "",
          "type": "bool"
        }
      ],
      "stateMutability": "nonpayable",
      "type": "function"
    },
    {
      "inputs": [],
      "name": "feeDenominator",
      "outputs": [
        {
          "internalType": "uint256",
          "name": "",
          "type": "uint256"
        }
      ],
      "stateMutability": "view",
      "type": "function"
    },
    {
      "inputs": [],
      "name": "getCirculatingSupply",
      "outputs": [
        {
          "internalType": "uint256",
          "name": "",
          "type": "uint256"
        }
      ],
      "stateMutability": "view",
      "type": "function"
    },
    {
      "inputs": [
        {
          "internalType": "uint256",
          "name": "accuracy",
          "type": "uint256"
        }
      ],
      "name": "getLiquidityBacking",
      "outputs": [
        {
          "internalType": "uint256",
          "name": "",
          "type": "uint256"
        }
      ],
      "stateMutability": "view",
      "type": "function"
    },
    {
      "inputs": [
        {
          "internalType": "address",
          "name": "spender",
          "type": "address"
        },
        {
          "internalType": "uint256",
          "name": "addedValue",
          "type": "uint256"
        }
      ],
      "name": "increaseAllowance",
      "outputs": [
        {
          "internalType": "bool",
          "name": "",
          "type": "bool"
        }
      ],
      "stateMutability": "nonpayable",
      "type": "function"
    },
    {
      "inputs": [
        {
          "internalType": "address",
          "name": "_router",
          "type": "address"
        }
      ],
      "name": "initialize",
      "outputs": [],
      "stateMutability": "nonpayable",
      "type": "function"
    },
    {
      "inputs": [],
      "name": "isNotInSwap",
      "outputs": [
        {
          "internalType": "bool",
          "name": "",
          "type": "bool"
        }
      ],
      "stateMutability": "view",
      "type": "function"
    },
    {
      "inputs": [],
      "name": "liquidityBuyFee",
      "outputs": [
        {
          "internalType": "uint256",
          "name": "",
          "type": "uint256"
        }
      ],
      "stateMutability": "view",
      "type": "function"
    },
    {
      "inputs": [],
      "name": "liquidityFloorValueFund",
      "outputs": [
        {
          "internalType": "address",
          "name": "",
          "type": "address"
        }
      ],
      "stateMutability": "view",
      "type": "function"
    },
    {
      "inputs": [],
      "name": "liquidityFloorValueFundBuyFee",
      "outputs": [
        {
          "internalType": "uint256",
          "name": "",
          "type": "uint256"
        }
      ],
      "stateMutability": "view",
      "type": "function"
    },
    {
      "inputs": [],
      "name": "liquidityFloorValueFundSellFee",
      "outputs": [
        {
          "internalType": "uint256",
          "name": "",
          "type": "uint256"
        }
      ],
      "stateMutability": "view",
      "type": "function"
    },
    {
      "inputs": [],
      "name": "liquiditySellFee",
      "outputs": [
        {
          "internalType": "uint256",
          "name": "",
          "type": "uint256"
        }
      ],
      "stateMutability": "view",
      "type": "function"
    },
    {
      "inputs": [],
      "name": "liquiditySwapRate",
      "outputs": [
        {
          "internalType": "uint256",
          "name": "",
          "type": "uint256"
        }
      ],
      "stateMutability": "view",
      "type": "function"
    },
    {
      "inputs": [],
      "name": "manualSync",
      "outputs": [],
      "stateMutability": "nonpayable",
      "type": "function"
    },
    {
      "inputs": [],
      "name": "name",
      "outputs": [
        {
          "internalType": "string",
          "name": "",
          "type": "string"
        }
      ],
      "stateMutability": "view",
      "type": "function"
    },
    {
      "inputs": [],
      "name": "owner",
      "outputs": [
        {
          "internalType": "address",
          "name": "",
          "type": "address"
        }
      ],
      "stateMutability": "view",
      "type": "function"
    },
    {
      "inputs": [],
      "name": "pair",
      "outputs": [
        {
          "internalType": "address",
          "name": "",
          "type": "address"
        }
      ],
      "stateMutability": "view",
      "type": "function"
    },
    {
      "inputs": [],
      "name": "pairAddress",
      "outputs": [
        {
          "internalType": "address",
          "name": "",
          "type": "address"
        }
      ],
      "stateMutability": "view",
      "type": "function"
    },
    {
      "inputs": [],
      "name": "pairContract",
      "outputs": [
        {
          "internalType": "contract IUniswapV2Pair",
          "name": "",
          "type": "address"
        }
      ],
      "stateMutability": "view",
      "type": "function"
    },
    {
      "inputs": [],
      "name": "rebaseRate",
      "outputs": [
        {
          "internalType": "uint256",
          "name": "",
          "type": "uint256"
        }
      ],
      "stateMutability": "view",
      "type": "function"
    },
    {
      "inputs": [],
      "name": "renounceOwnership",
      "outputs": [],
      "stateMutability": "nonpayable",
      "type": "function"
    },
    {
      "inputs": [],
      "name": "router",
      "outputs": [
        {
          "internalType": "contract IUniswapV2Router02",
          "name": "",
          "type": "address"
        }
      ],
      "stateMutability": "view",
      "type": "function"
    },
    {
      "inputs": [
        {
          "internalType": "bool",
          "name": "_flag",
          "type": "bool"
        }
      ],
      "name": "setAutoAddLiquidity",
      "outputs": [],
      "stateMutability": "nonpayable",
      "type": "function"
    },
    {
      "inputs": [
        {
          "internalType": "bool",
          "name": "_flag",
          "type": "bool"
        }
      ],
      "name": "setAutoRebase",
      "outputs": [],
      "stateMutability": "nonpayable",
      "type": "function"
    },
    {
      "inputs": [
        {
          "internalType": "address",
          "name": "_botAddress",
          "type": "address"
        },
        {
          "internalType": "bool",
          "name": "_flag",
          "type": "bool"
        }
      ],
      "name": "setBotBlacklist",
      "outputs": [],
      "stateMutability": "nonpayable",
      "type": "function"
    },
    {
      "inputs": [
        {
          "internalType": "address",
          "name": "_autoLiquidityReceiver",
          "type": "address"
        },
        {
          "internalType": "address",
          "name": "_treasuryReceiver",
          "type": "address"
        },
        {
          "internalType": "address",
          "name": "_liquidityFloorValueFundReceiver",
          "type": "address"
        }
      ],
      "name": "setFeeReceivers",
      "outputs": [],
      "stateMutability": "nonpayable",
      "type": "function"
    },
    {
      "inputs": [
        {
          "internalType": "address",
          "name": "_address",
          "type": "address"
        }
      ],
      "name": "setLP",
      "outputs": [],
      "stateMutability": "nonpayable",
      "type": "function"
    },
    {
      "inputs": [
        {
          "internalType": "uint256",
          "name": "newRate",
          "type": "uint256"
        }
      ],
      "name": "setLiquiditySwapRate",
      "outputs": [],
      "stateMutability": "nonpayable",
      "type": "function"
    },
    {
      "inputs": [
        {
          "internalType": "uint256",
          "name": "newMaxSupply",
          "type": "uint256"
        }
      ],
      "name": "setMaxSupply",
      "outputs": [],
      "stateMutability": "nonpayable",
      "type": "function"
    },
    {
      "inputs": [
        {
          "internalType": "address",
          "name": "_pairAddress",
          "type": "address"
        }
      ],
      "name": "setPairAddress",
      "outputs": [],
      "stateMutability": "nonpayable",
      "type": "function"
    },
    {
      "inputs": [
        {
          "internalType": "uint256",
          "name": "newPercentage",
          "type": "uint256"
        }
      ],
      "name": "setRebasePercentage",
      "outputs": [],
      "stateMutability": "nonpayable",
      "type": "function"
    },
    {
      "inputs": [
        {
          "internalType": "uint256",
          "name": "newRate",
          "type": "uint256"
        }
      ],
      "name": "setRebaseRate",
      "outputs": [],
      "stateMutability": "nonpayable",
      "type": "function"
    },
    {
      "inputs": [
        {
          "internalType": "uint256",
          "name": "lvf",
          "type": "uint256"
        },
        {
          "internalType": "uint256",
          "name": "treas",
          "type": "uint256"
        },
        {
          "internalType": "uint256",
          "name": "liq",
          "type": "uint256"
        },
        {
          "internalType": "uint256",
          "name": "brn",
          "type": "uint256"
        },
        {
          "internalType": "bool",
          "name": "buy",
          "type": "bool"
        }
      ],
      "name": "setTaxes",
      "outputs": [],
      "stateMutability": "nonpayable",
      "type": "function"
    },
    {
      "inputs": [
        {
          "internalType": "address",
          "name": "_addr",
          "type": "address"
        }
      ],
      "name": "setWhitelist",
      "outputs": [],
      "stateMutability": "nonpayable",
      "type": "function"
    },
    {
      "inputs": [],
      "name": "symbol",
      "outputs": [
        {
          "internalType": "string",
          "name": "",
          "type": "string"
        }
      ],
      "stateMutability": "view",
      "type": "function"
    },
    {
      "inputs": [],
      "name": "totalBuyFee",
      "outputs": [
        {
          "internalType": "uint256",
          "name": "",
          "type": "uint256"
        }
      ],
      "stateMutability": "view",
      "type": "function"
    },
    {
      "inputs": [],
      "name": "totalSellFee",
      "outputs": [
        {
          "internalType": "uint256",
          "name": "",
          "type": "uint256"
        }
      ],
      "stateMutability": "view",
      "type": "function"
    },
    {
      "inputs": [],
      "name": "totalSupply",
      "outputs": [
        {
          "internalType": "uint256",
          "name": "",
          "type": "uint256"
        }
      ],
      "stateMutability": "view",
      "type": "function"
    },
    {
      "inputs": [
        {
          "internalType": "address",
          "name": "to",
          "type": "address"
        },
        {
          "internalType": "uint256",
          "name": "value",
          "type": "uint256"
        }
      ],
      "name": "transfer",
      "outputs": [
        {
          "internalType": "bool",
          "name": "",
          "type": "bool"
        }
      ],
      "stateMutability": "nonpayable",
      "type": "function"
    },
    {
      "inputs": [
        {
          "internalType": "address",
          "name": "from",
          "type": "address"
        },
        {
          "internalType": "address",
          "name": "to",
          "type": "address"
        },
        {
          "internalType": "uint256",
          "name": "value",
          "type": "uint256"
        }
      ],
      "name": "transferFrom",
      "outputs": [
        {
          "internalType": "bool",
          "name": "",
          "type": "bool"
        }
      ],
      "stateMutability": "nonpayable",
      "type": "function"
    },
    {
      "inputs": [
        {
          "internalType": "address",
          "name": "newOwner",
          "type": "address"
        }
      ],
      "name": "transferOwnership",
      "outputs": [],
      "stateMutability": "nonpayable",
      "type": "function"
    },
    {
      "inputs": [],
      "name": "treasury",
      "outputs": [
        {
          "internalType": "address",
          "name": "",
          "type": "address"
        }
      ],
      "stateMutability": "view",
      "type": "function"
    },
    {
      "inputs": [],
      "name": "treasuryBuyFee",
      "outputs": [
        {
          "internalType": "uint256",
          "name": "",
          "type": "uint256"
        }
      ],
      "stateMutability": "view",
      "type": "function"
    },
    {
      "inputs": [],
      "name": "treasurySellFee",
      "outputs": [
        {
          "internalType": "uint256",
          "name": "",
          "type": "uint256"
        }
      ],
      "stateMutability": "view",
      "type": "function"
    },
    {
      "inputs": [],
      "name": "withdrawAllToTreasury",
      "outputs": [],
      "stateMutability": "nonpayable",
      "type": "function"
    },
    {
      "stateMutability": "payable",
      "type": "receive"
    }
  ],
  "transactionHash": "0x9ef9bc649256217f55c64450cd2ceb9bc9927914daa72e22bd4f099980533160",
  "args": [
    "0x10ED43C718714eb63d5aA57B78B54704E256024E"
  ],
  "numDeployments": 1,
  "solcInputHash": "cf8a106b96703970a52615164d45c2e5",
  "bytecode": "0x60806040523480156200001157600080fd5b50604051620035143803806200351483398101604081905262000034916200003b565b506200006d565b6000602082840312156200004e57600080fd5b81516001600160a01b03811681146200006657600080fd5b9392505050565b613497806200007d6000396000f3fe6080604052600436106104185760003560e01c8063854cff2f11610228578063bd59558111610128578063d7c01032116100bb578063f2fde38b1161008a578063f887ea401161006f578063f887ea4014610b94578063f9f92be414610bb4578063fce589d814610be457600080fd5b8063f2fde38b14610b5e578063f44da02514610b7e57600080fd5b8063d7c0103214610ac2578063dd62ed3e14610ae2578063e15beb8014610b28578063ed0d213714610b4857600080fd5b8063cfbac92f116100f7578063cfbac92f14610a34578063d28d885214610a54578063d439979014610a69578063d51ed1c814610aa257600080fd5b8063bd595581146109c9578063c4d66de8146109de578063ca33e64c146109fe578063ccb6135814610a1e57600080fd5b80639e90f9aa116101bb578063a8b089821161018a578063aa020b981161016f578063aa020b981461097d578063afb9cf6d14610993578063b09f1266146109b457600080fd5b8063a8b089821461093d578063a9059cbb1461095d57600080fd5b80639e90f9aa146108bd578063a22d4832146108dd578063a457c2d7146108fd578063a8aa1b311461091d57600080fd5b80639b2912cc116101f75780639b2912cc1461085b5780639b4eaff3146108715780639b87676c146108915780639d9241ec146108a757600080fd5b8063854cff2f146107e85780638da5cb5b1461080857806395d89b411461082657806396bb3d9c1461083b57600080fd5b806337c9be871161033357806361d027b3116102c657806370a0823111610295578063753d02a11161027a578063753d02a11461079d5780637cb95d00146107b257806383b4ac68146107c857600080fd5b806370a0823114610768578063715018a61461078857600080fd5b806361d027b3146106f15780636912652c146107115780636a2c3858146107325780636f8b44b01461074857600080fd5b806354307f141161030257806354307f141461068157806359b107b9146106a15780635a604c52146106b75780635bac988e146106d157600080fd5b806337c9be87146105f357806339509351146106135780633eaaf86b146106335780634d709adf1461064957600080fd5b80632b112e49116103ab578063313ce5671161037a578063313ce5671461058757806332424aa3146105ad57806332b75683146105c757806333a581d2146105dd57600080fd5b80632b112e49146105265780632c10508c1461053b5780632e0f2625146105515780632f34d2821461056757600080fd5b8063180b0d7e116103e7578063180b0d7e146104b957806318160ddd146104cf57806323b872dd146104e45780632602ad181461050457600080fd5b806306fdde0314610424578063095ea7b31461044f578063099d0d301461047f57806317b7c544146104a357600080fd5b3661041f57005b600080fd5b34801561043057600080fd5b50610439610bfa565b6040516104469190612f3c565b60405180910390f35b34801561045b57600080fd5b5061046f61046a366004612fa6565b610c8c565b6040519015158152602001610446565b34801561048b57600080fd5b50610495607b5481565b604051908152602001610446565b3480156104af57600080fd5b5061049560845481565b3480156104c557600080fd5b5061049560715481565b3480156104db57600080fd5b50606e54610495565b3480156104f057600080fd5b5061046f6104ff366004612fd2565b610cf9565b34801561051057600080fd5b5061052461051f366004613013565b610d8b565b005b34801561053257600080fd5b50610495610ddd565b34801561054757600080fd5b5061049560765481565b34801561055d57600080fd5b5061049560695481565b34801561057357600080fd5b5061052461058236600461302c565b610e33565b34801561059357600080fd5b5060675460ff165b60405160ff9091168152602001610446565b3480156105b957600080fd5b5060675461059b9060ff1681565b3480156105d357600080fd5b5061049560865481565b3480156105e957600080fd5b5061049560685481565b3480156105ff57600080fd5b5061052461060e36600461305e565b610e9d565b34801561061f57600080fd5b5061046f61062e366004612fa6565b610f84565b34801561063f57600080fd5b50610495606e5481565b34801561065557600080fd5b50608354610669906001600160a01b031681565b6040516001600160a01b039091168152602001610446565b34801561068d57600080fd5b50607f54610669906001600160a01b031681565b3480156106ad57600080fd5b5061049560785481565b3480156106c357600080fd5b50606a5461059b9060ff1681565b3480156106dd57600080fd5b506105246106ec366004613093565b61100a565b3480156106fd57600080fd5b50607e54610669906001600160a01b031681565b34801561071d57600080fd5b5060835461046f90600160b01b900460ff1681565b34801561073e57600080fd5b5061049560755481565b34801561075457600080fd5b50610524610763366004613013565b61115a565b34801561077457600080fd5b5061049561078336600461302c565b6111a7565b34801561079457600080fd5b506105246111ce565b3480156107a957600080fd5b50610524611222565b3480156107be57600080fd5b5061049560885481565b3480156107d457600080fd5b50608354600160a01b900460ff161561046f565b3480156107f457600080fd5b5061052461080336600461302c565b61128c565b34801561081457600080fd5b506033546001600160a01b0316610669565b34801561083257600080fd5b506104396112f8565b34801561084757600080fd5b50610524610856366004613013565b611307565b34801561086757600080fd5b5061049560875481565b34801561087d57600080fd5b5061052461088c366004613013565b611354565b34801561089d57600080fd5b5061049560855481565b3480156108b357600080fd5b50610495607c5481565b3480156108c957600080fd5b50607454610669906001600160a01b031681565b3480156108e957600080fd5b506105246108f836600461302c565b6113a1565b34801561090957600080fd5b5061046f610918366004612fa6565b61140b565b34801561092957600080fd5b50608054610669906001600160a01b031681565b34801561094957600080fd5b50608154610669906001600160a01b031681565b34801561096957600080fd5b5061046f610978366004612fa6565b6114f2565b34801561098957600080fd5b5061049560895481565b34801561099f57600080fd5b5060835461046f90600160a81b900460ff1681565b3480156109c057600080fd5b5061043961151e565b3480156109d557600080fd5b506105246115ac565b3480156109ea57600080fd5b506105246109f936600461302c565b61180f565b348015610a0a57600080fd5b50607d54610669906001600160a01b031681565b348015610a2a57600080fd5b5061049560775481565b348015610a4057600080fd5b50610524610a4f3660046130dc565b611e0c565b348015610a6057600080fd5b50610439611e95565b348015610a7557600080fd5b5061046f610a8436600461302c565b6001600160a01b03166000908152608d602052604090205460ff1690565b348015610aae57600080fd5b50610495610abd366004613013565b611ea2565b348015610ace57600080fd5b50610524610add3660046130f7565b611efe565b348015610aee57600080fd5b50610495610afd366004613142565b6001600160a01b039182166000908152608b6020908152604080832093909416825291909152205490565b348015610b3457600080fd5b50610524610b433660046130dc565b611f85565b348015610b5457600080fd5b50610495607a5481565b348015610b6a57600080fd5b50610524610b7936600461302c565b61200f565b348015610b8a57600080fd5b5061049560795481565b348015610ba057600080fd5b50608254610669906001600160a01b031681565b348015610bc057600080fd5b5061046f610bcf36600461302c565b608c6020526000908152604090205460ff1681565b348015610bf057600080fd5b5061049560705481565b606060658054610c099061317b565b80601f0160208091040260200160405190810160405280929190818152602001828054610c359061317b565b8015610c825780601f10610c5757610100808354040283529160200191610c82565b820191906000526020600020905b815481529060010190602001808311610c6557829003601f168201915b5050505050905090565b336000818152608b602090815260408083206001600160a01b038716808552925280832085905551919290917f8c5be1e5ebec7d5bd14f71427d1e84f3dd0314c0f7b2291e5b200ac8c7c3b92590610ce79086815260200190565b60405180910390a35060015b92915050565b6000826001600160a01b038116610d0f57600080fd5b6001600160a01b0385166000908152608b6020908152604080832033845290915290205460001914610d74576001600160a01b0385166000908152608b6020908152604080832033845290915281208054859290610d6e9084906131cb565b90915550505b610d7f8585856120dc565b50600195945050505050565b6033546001600160a01b03163314610dd85760405162461bcd60e51b8152602060048201819052602482015260008051602061344283398151915260448201526064015b60405180910390fd5b608955565b606f546073546001600160a01b039081166000908152608a6020526040808220546072549093168252812054606b5491939291610e1a91906131cb565b610e2491906131cb565b610e2e91906131f8565b905090565b6033546001600160a01b03163314610e7b5760405162461bcd60e51b815260206004820181905260248201526000805160206134428339815191526044820152606401610dcf565b608380546001600160a01b0319166001600160a01b0392909216919091179055565b6033546001600160a01b03163314610ee55760405162461bcd60e51b815260206004820181905260248201526000805160206134428339815191526044820152606401610dcf565b813b610f595760405162461bcd60e51b815260206004820152603b60248201527f6f6e6c7920636f6e747261637420616464726573732c206e6f7420616c6c6f7760448201527f65642065787465726e616c6c79206f776e6564206163636f756e7400000000006064820152608401610dcf565b6001600160a01b03919091166000908152608c60205260409020805460ff1916911515919091179055565b336000908152608b602090815260408083206001600160a01b0386168452909152812054610fb390839061320c565b336000818152608b602090815260408083206001600160a01b038916808552908352928190208590555193845290927f8c5be1e5ebec7d5bd14f71427d1e84f3dd0314c0f7b2291e5b200ac8c7c3b9259101610ce7565b6033546001600160a01b031633146110525760405162461bcd60e51b815260206004820181905260248201526000805160206134428339815191526044820152606401610dcf565b60708290558015611096576075859055607684905560778390556070548361107a868861320c565b611084919061320c565b61108e919061320c565b6078556110cb565b6079859055607a849055607b839055607054836110b3868861320c565b6110bd919061320c565b6110c7919061320c565b607c555b60fa607854111580156110e1575060fa607c5411155b6111535760405162461bcd60e51b815260206004820152602360248201527f546f74616c206665652063616e6e6f7420626520686967686572207468616e2060448201527f32352500000000000000000000000000000000000000000000000000000000006064820152608401610dcf565b5050505050565b6033546001600160a01b031633146111a25760405162461bcd60e51b815260206004820181905260248201526000805160206134428339815191526044820152606401610dcf565b606c55565b606f546001600160a01b0382166000908152608a60205260408120549091610cf3916131f8565b6033546001600160a01b031633146112165760405162461bcd60e51b815260206004820181905260248201526000805160206134428339815191526044820152606401610dcf565b61122060006122c5565b565b608060009054906101000a90046001600160a01b03166001600160a01b031663fff6cae96040518163ffffffff1660e01b8152600401600060405180830381600087803b15801561127257600080fd5b505af1158015611286573d6000803e3d6000fd5b50505050565b6033546001600160a01b031633146112d45760405162461bcd60e51b815260206004820181905260248201526000805160206134428339815191526044820152606401610dcf565b6001600160a01b03166000908152608d60205260409020805460ff19166001179055565b606060668054610c099061317b565b6033546001600160a01b0316331461134f5760405162461bcd60e51b815260206004820181905260248201526000805160206134428339815191526044820152606401610dcf565b608455565b6033546001600160a01b0316331461139c5760405162461bcd60e51b815260206004820181905260248201526000805160206134428339815191526044820152606401610dcf565b608855565b6033546001600160a01b031633146113e95760405162461bcd60e51b815260206004820181905260248201526000805160206134428339815191526044820152606401610dcf565b608180546001600160a01b0319166001600160a01b0392909216919091179055565b336000908152608b602090815260408083206001600160a01b038616845290915281205480831061145f57336000908152608b602090815260408083206001600160a01b038816845290915281205561148e565b61146983826131cb565b336000908152608b602090815260408083206001600160a01b03891684529091529020555b336000818152608b602090815260408083206001600160a01b038916808552908352928190205490519081529192917f8c5be1e5ebec7d5bd14f71427d1e84f3dd0314c0f7b2291e5b200ac8c7c3b925910160405180910390a35060019392505050565b6000826001600160a01b03811661150857600080fd5b6115133385856120dc565b506001949350505050565b6066805461152b9061317b565b80601f01602080910402602001604051908101604052809291908181526020018280546115579061317b565b80156115a45780601f10611579576101008083540402835291602001916115a4565b820191906000526020600020905b81548152906001019060200180831161158757829003601f168201915b505050505081565b6083805460ff60a01b1916600160a01b1790556115c63390565b6001600160a01b03166115e16033546001600160a01b031690565b6001600160a01b0316146116255760405162461bcd60e51b815260206004820181905260248201526000805160206134428339815191526044820152606401610dcf565b606f54306000908152608a60205260408120549091611643916131f8565b9050600081116116bb5760405162461bcd60e51b815260206004820152603160248201527f5468657265206973206e6f2053434d20746f6b656e206465706f73697465642060448201527f696e20746f6b656e20636f6e74726163740000000000000000000000000000006064820152608401610dcf565b60408051600280825260608201835260009260208301908036833701905050905030816000815181106116f0576116f0613224565b6001600160a01b03928316602091820292909201810191909152608254604080516315ab88c960e31b81529051919093169263ad5c46489260048083019391928290030181865afa158015611749573d6000803e3d6000fd5b505050506040513d601f19601f8201168201806040525081019061176d919061323a565b8160018151811061178057611780613224565b6001600160a01b039283166020918202929092010152608254607e5460405163791ac94760e01b81529183169263791ac947926117cc9287926000928892909116904290600401613257565b600060405180830381600087803b1580156117e657600080fd5b505af11580156117fa573d6000803e3d6000fd5b50506083805460ff60a01b1916905550505050565b600054610100900460ff1661182a5760005460ff161561182e565b303b155b6118a05760405162461bcd60e51b815260206004820152602e60248201527f496e697469616c697a61626c653a20636f6e747261637420697320616c72656160448201527f647920696e697469616c697a65640000000000000000000000000000000000006064820152608401610dcf565b600054610100900460ff161580156118c2576000805461ffff19166101011790555b6118ca612317565b60408051808201909152601b8082527f53636f7270696f6e204361706974616c204d616e6167656d656e740000000000602090920191825261190e91606591612ea3565b506040805180820190915260038082527f53434d0000000000000000000000000000000000000000000000000000000000602090920191825261195391606691612ea3565b506067805460ff1990811660059081179092556000196068556069829055606a8054909116600717905561198890600a6133ac565b611995906207a1206133b8565b606d8190556068546119a791906133d7565b6068546119b491906131cb565b606b556069546119c590600a6133ac565b6119d49064012a05f2006133b8565b606c55600a60708190556103e86071556072805461dead6001600160a01b03199182168117909255607380548216905560748054909116909117905560286075819055603c60768190556077829055611a2d908261320c565b611a37919061320c565b611a41919061320c565b607855603c60798190556050607a8190556032607b819055607054929091611a689161320c565b611a72919061320c565b611a7c919061320c565b607c556105786084556102586088819055608955608280546001600160a01b0319166001600160a01b038416908117909155604080517fc45a0155000000000000000000000000000000000000000000000000000000008152905163c45a0155916004808201926020929091908290030181865afa158015611b02573d6000803e3d6000fd5b505050506040513d601f19601f82011682018060405250810190611b26919061323a565b6001600160a01b031663c9c65396608260009054906101000a90046001600160a01b03166001600160a01b031663ad5c46486040518163ffffffff1660e01b8152600401602060405180830381865afa158015611b87573d6000803e3d6000fd5b505050506040513d601f19601f82011682018060405250810190611bab919061323a565b6040517fffffffff0000000000000000000000000000000000000000000000000000000060e084901b1681526001600160a01b0390911660048201523060248201526044016020604051808303816000875af1158015611c0f573d6000803e3d6000fd5b505050506040513d601f19601f82011682018060405250810190611c33919061323a565b608080546001600160a01b039283166001600160a01b0319918216178255607e805482167345799b5ef6247eb69e61d2f8fe77938ed2798be5178155607f80548316731e30ad8c2c6520590c04fbb248f0f37981b7069d179055607d80548316731077b5a4ce56de5e3bad3aa8dd4713b5bbb78f90179055306000908152608b602090815260408083206082548816845282528083206000199055945460818054861691881691821790556083805490951617909355606d54606e908155606b5492549095168152608a9092529190208190559054611d11916131f8565b606f554260858190556086819055608755608380547fffffffffffffffffff0000ffffffffffffffffffffffffffffffffffffffffff16760101000000000000000000000000000000000000000000179055607e80546001600160a01b039081166000908152608d6020526040808220805460ff19908116600190811790925530845291909220805490911690911790559054611dae91166122c5565b607e54606e546040519081526001600160a01b03909116906000907fddf252ad1be2c89b69c2b068fc378daa952ba7f163c4a11628f55a4df523b3ef9060200160405180910390a38015611e08576000805461ff00191690555b5050565b6033546001600160a01b03163314611e545760405162461bcd60e51b815260206004820181905260248201526000805160206134428339815191526044820152606401610dcf565b8015611e7a5760838054821515600160b01b0260ff60b01b199091161790554260875550565b6083805460ff60b01b1916600160b01b831515021790555b50565b6065805461152b9061317b565b606f546080546001600160a01b03166000908152608a602052604081205490918291611ece91906131f8565b9050611ed8610ddd565b611ee282856133b8565b611eed9060026133b8565b611ef791906131f8565b9392505050565b6033546001600160a01b03163314611f465760405162461bcd60e51b815260206004820181905260248201526000805160206134428339815191526044820152606401610dcf565b607d80546001600160a01b039485166001600160a01b031991821617909155607e805493851693821693909317909255607f8054919093169116179055565b6033546001600160a01b03163314611fcd5760405162461bcd60e51b815260206004820181905260248201526000805160206134428339815191526044820152606401610dcf565b8015611ff35760838054821515600160a81b0260ff60a81b199091161790554260865550565b60838054821515600160a81b0260ff60a81b1990911617905550565b6033546001600160a01b031633146120575760405162461bcd60e51b815260206004820181905260248201526000805160206134428339815191526044820152606401610dcf565b6001600160a01b0381166120d35760405162461bcd60e51b815260206004820152602660248201527f4f776e61626c653a206e6577206f776e657220697320746865207a65726f206160448201527f64647265737300000000000000000000000000000000000000000000000000006064820152608401610dcf565b611e92816122c5565b6001600160a01b0383166000908152608c602052604081205460ff1615801561211e57506001600160a01b0383166000908152608c602052604090205460ff16155b61216a5760405162461bcd60e51b815260206004820152600c60248201527f696e5f626c61636b6c69737400000000000000000000000000000000000000006044820152606401610dcf565b608354600160a01b900460ff161561218e5761218784848461238a565b9050611ef7565b612196612417565b156121a3576121a3612482565b6121ab612618565b156121b8576121b861266c565b6121c061295e565b156121cd576121cd612989565b6000606f54836121dd91906133b8565b6001600160a01b0386166000908152608a602052604081208054929350839290919061220a9084906131cb565b909155506000905061221c8686612c48565b6122265781612231565b612231868684612c9c565b6001600160a01b0386166000908152608a602052604081208054929350839290919061225e90849061320c565b92505081905550846001600160a01b0316866001600160a01b03167fddf252ad1be2c89b69c2b068fc378daa952ba7f163c4a11628f55a4df523b3ef606f54846122a891906131f8565b60405190815260200160405180910390a350600195945050505050565b603380546001600160a01b038381166001600160a01b0319831681179093556040519116919082907f8be0079c531659141344cd1fd0a4f28419497f9722a3daafe3b4186f6b6457e090600090a35050565b600054610100900460ff166123825760405162461bcd60e51b815260206004820152602b60248201527f496e697469616c697a61626c653a20636f6e7472616374206973206e6f74206960448201526a6e697469616c697a696e6760a81b6064820152608401610dcf565b611220612e2f565b600080606f548361239b91906133b8565b6001600160a01b0386166000908152608a60205260409020549091506123c29082906131cb565b6001600160a01b038087166000908152608a602052604080822093909355908616815220546123f290829061320c565b6001600160a01b0385166000908152608a602052604090205550600190509392505050565b608354600090600160a81b900460ff1680156124365750606c54606e54105b801561244d57506080546001600160a01b03163314155b80156124635750608354600160a01b900460ff16155b8015610e2e575060885460865461247a919061320c565b421015905090565b608354600160a01b900460ff161561249657565b6000608654426124a691906131cb565b90506000608854826124b891906131f8565b905060006124c782600a6133b8565b905060005b8281101561252f57606a546124e59060ff16600a6133eb565b608454606a546124f99060ff16600a6133eb565b612503919061320c565b606e5461251091906133b8565b61251a91906131f8565b606e5580612527816133fa565b9150506124cc565b50606e54606b5461254091906131f8565b606f5560885461255090836133b8565b60865461255d919061320c565b608655608354604080517ffff6cae900000000000000000000000000000000000000000000000000000000815290516001600160a01b039092169163fff6cae99160048082019260009290919082900301818387803b1580156125bf57600080fd5b505af11580156125d3573d6000803e3d6000fd5b50505050807f72725a3b1e5bd622d6bcd1339bb31279c351abe8f541ac7fd320f24e1b1641f2606e5460405161260b91815260200190565b60405180910390a2505050565b608354600090600160b01b900460ff16801561263e5750608354600160a01b900460ff16155b801561265557506080546001600160a01b03163314155b8015610e2e575060895460875461247a919061320c565b6083805460ff60a01b1916600160a01b179055606f54607d546001600160a01b03166000908152608a602052604081205490916126a8916131f8565b607d546001600160a01b03166000908152608a602052604080822054308352908220805493945090929091906126df90849061320c565b9091555050607d546001600160a01b03166000908152608a6020526040812081905561270c6002836131f8565b9050600061271a82846131cb565b90508060000361272c5750505061294f565b604080516002808252606082018352600092602083019080368337019050509050308160008151811061276157612761613224565b6001600160a01b03928316602091820292909201810191909152608254604080516315ab88c960e31b81529051919093169263ad5c46489260048083019391928290030181865afa1580156127ba573d6000803e3d6000fd5b505050506040513d601f19601f820116820180604052508101906127de919061323a565b816001815181106127f1576127f1613224565b6001600160a01b03928316602091820292909201015260825460405163791ac94760e01b81524792919091169063791ac9479061283b908690600090879030904290600401613257565b600060405180830381600087803b15801561285557600080fd5b505af1158015612869573d6000803e3d6000fd5b505050506000814761287b91906131cb565b905060008511801561288d5750600081115b1561294457608254607d546040517ff305d7190000000000000000000000000000000000000000000000000000000081523060048201526024810188905260006044820181905260648201526001600160a01b0391821660848201524260a482015291169063f305d71990839060c40160606040518083038185885af115801561291b573d6000803e3d6000fd5b50505050506040513d601f19601f820116820180604052508101906129409190613413565b5050505b505042608755505050505b6083805460ff60a01b19169055565b608354600090600160a01b900460ff16158015610e2e5750506080546001600160a01b031633141590565b6083805460ff60a01b1916600160a01b179055606f54306000908152608a602052604081205490916129ba916131f8565b9050806000036129ca575061294f565b604080516002808252606082018352479260009291906020830190803683370190505090503081600081518110612a0357612a03613224565b6001600160a01b03928316602091820292909201810191909152608254604080516315ab88c960e31b81529051919093169263ad5c46489260048083019391928290030181865afa158015612a5c573d6000803e3d6000fd5b505050506040513d601f19601f82011682018060405250810190612a80919061323a565b81600181518110612a9357612a93613224565b6001600160a01b03928316602091820292909201015260825460405163791ac94760e01b815291169063791ac94790612ad9908690600090869030904290600401613257565b600060405180830381600087803b158015612af357600080fd5b505af1158015612b07573d6000803e3d6000fd5b5050505060008247612b1991906131cb565b90506000607954607554607a54607654612b33919061320c565b612b3d919061320c565b612b47919061320c565b607a54607654612b57919061320c565b612b6190846133b8565b612b6b91906131f8565b607e546040519192506001600160a01b03169082156108fc029083906000818181858888f19350505050158015612ba6573d6000803e3d6000fd5b506000607954607554607a54607654612bbf919061320c565b612bc9919061320c565b612bd3919061320c565b607954607554612be3919061320c565b612bed90856133b8565b612bf791906131f8565b607f546040519192506001600160a01b03169082156108fc029083906000818181858888f19350505050158015612c32573d6000803e3d6000fd5b505050505050506083805460ff60a01b19169055565b6080546000906001600160a01b0384811691161480612c7457506080546001600160a01b038381169116145b8015611ef7575050506001600160a01b03166000908152608d602052604090205460ff161590565b607854607754607654607554608054600094939291906001600160a01b0390811690881603612cda57607c549350607b549250607a54915060795490505b607154600090612cea86896133b8565b612cf491906131f8565b905060715460705488612d0791906133b8565b612d1191906131f8565b6074546001600160a01b03166000908152608a602052604081208054909190612d3b90849061320c565b9091555050607154612d4d858561320c565b612d5790896133b8565b612d6191906131f8565b306000908152608a602052604081208054909190612d8090849061320c565b9091555050607154612d9285896133b8565b612d9c91906131f8565b607d546001600160a01b03166000908152608a602052604081208054909190612dc690849061320c565b9091555050606f5430906001600160a01b038b16907fddf252ad1be2c89b69c2b068fc378daa952ba7f163c4a11628f55a4df523b3ef90612e0790856131f8565b60405190815260200160405180910390a3612e2281886131cb565b9998505050505050505050565b600054610100900460ff16612e9a5760405162461bcd60e51b815260206004820152602b60248201527f496e697469616c697a61626c653a20636f6e7472616374206973206e6f74206960448201526a6e697469616c697a696e6760a81b6064820152608401610dcf565b611220336122c5565b828054612eaf9061317b565b90600052602060002090601f016020900481019282612ed15760008555612f17565b82601f10612eea57805160ff1916838001178555612f17565b82800160010185558215612f17579182015b82811115612f17578251825591602001919060010190612efc565b50612f23929150612f27565b5090565b5b80821115612f235760008155600101612f28565b600060208083528351808285015260005b81811015612f6957858101830151858201604001528201612f4d565b81811115612f7b576000604083870101525b50601f01601f1916929092016040019392505050565b6001600160a01b0381168114611e9257600080fd5b60008060408385031215612fb957600080fd5b8235612fc481612f91565b946020939093013593505050565b600080600060608486031215612fe757600080fd5b8335612ff281612f91565b9250602084013561300281612f91565b929592945050506040919091013590565b60006020828403121561302557600080fd5b5035919050565b60006020828403121561303e57600080fd5b8135611ef781612f91565b8035801515811461305957600080fd5b919050565b6000806040838503121561307157600080fd5b823561307c81612f91565b915061308a60208401613049565b90509250929050565b600080600080600060a086880312156130ab57600080fd5b853594506020860135935060408601359250606086013591506130d060808701613049565b90509295509295909350565b6000602082840312156130ee57600080fd5b611ef782613049565b60008060006060848603121561310c57600080fd5b833561311781612f91565b9250602084013561312781612f91565b9150604084013561313781612f91565b809150509250925092565b6000806040838503121561315557600080fd5b823561316081612f91565b9150602083013561317081612f91565b809150509250929050565b600181811c9082168061318f57607f821691505b6020821081036131af57634e487b7160e01b600052602260045260246000fd5b50919050565b634e487b7160e01b600052601160045260246000fd5b6000828210156131dd576131dd6131b5565b500390565b634e487b7160e01b600052601260045260246000fd5b600082613207576132076131e2565b500490565b6000821982111561321f5761321f6131b5565b500190565b634e487b7160e01b600052603260045260246000fd5b60006020828403121561324c57600080fd5b8151611ef781612f91565b600060a082018783526020878185015260a0604085015281875180845260c086019150828901935060005b818110156132a75784516001600160a01b031683529383019391830191600101613282565b50506001600160a01b03969096166060850152505050608001529392505050565b600181815b808511156133035781600019048211156132e9576132e96131b5565b808516156132f657918102915b93841c93908002906132cd565b509250929050565b60008261331a57506001610cf3565b8161332757506000610cf3565b816001811461333d576002811461334757613363565b6001915050610cf3565b60ff841115613358576133586131b5565b50506001821b610cf3565b5060208310610133831016604e8410600b8410161715613386575081810a610cf3565b61339083836132c8565b80600019048211156133a4576133a46131b5565b029392505050565b6000611ef7838361330b565b60008160001904831182151516156133d2576133d26131b5565b500290565b6000826133e6576133e66131e2565b500690565b6000611ef760ff84168361330b565b60006001820161340c5761340c6131b5565b5060010190565b60008060006060848603121561342857600080fd5b835192506020840151915060408401519050925092509256fe4f776e61626c653a2063616c6c6572206973206e6f7420746865206f776e6572a2646970667358221220989236a7996455b46f5fcd8c45d961407f223928cb7f8f446d9345805474cf9d64736f6c634300080d0033",
  "devdoc": {
    "kind": "dev",
    "methods": {
      "decimals()": {
        "details": "Returns the decimals places of the token."
      },
      "name()": {
        "details": "Returns the name of the token."
      },
      "owner()": {
        "details": "Returns the address of the current owner."
      },
      "renounceOwnership()": {
        "details": "Leaves the contract without owner. It will not be possible to call `onlyOwner` functions anymore. Can only be called by the current owner. NOTE: Renouncing ownership will leave the contract without an owner, thereby removing any functionality that is only available to the owner."
      },
      "symbol()": {
        "details": "Returns the symbol of the token."
      },
      "totalSupply()": {
        "details": "Returns the amount of tokens in existence."
      },
      "transferOwnership(address)": {
        "details": "Transfers ownership of the contract to a new account (`newOwner`). Can only be called by the current owner."
      }
    },
    "version": 1
  },
  "userdoc": {
    "events": {
      "LogRebase(uint256,uint256)": {
        "notice": "=== Events === "
      }
    },
    "kind": "user",
    "methods": {
      "MAX_UINT256()": {
        "notice": "=== Supply Variables === "
      },
      "_name()": {
        "notice": "=== ERC20 METADATA === "
      },
      "autoLiquidityReceiver()": {
        "notice": "Operational addresses"
      },
      "burnFee()": {
        "notice": "=== Tax Variables === "
      },
      "liquidityFloorValueFundBuyFee()": {
        "notice": "Buy Tax"
      },
      "liquidityFloorValueFundSellFee()": {
        "notice": "Sell tax"
      }
    },
    "version": 1
  },
  "storageLayout": {
    "storage": [
      {
        "astId": 130,
        "contract": "contracts/SCM.sol:SCM",
        "label": "_initialized",
        "offset": 0,
        "slot": "0",
        "type": "t_bool"
      },
      {
        "astId": 133,
        "contract": "contracts/SCM.sol:SCM",
        "label": "_initializing",
        "offset": 1,
        "slot": "0",
        "type": "t_bool"
      },
      {
        "astId": 481,
        "contract": "contracts/SCM.sol:SCM",
        "label": "__gap",
        "offset": 0,
        "slot": "1",
        "type": "t_array(t_uint256)50_storage"
      },
      {
        "astId": 10,
        "contract": "contracts/SCM.sol:SCM",
        "label": "_owner",
        "offset": 0,
        "slot": "51",
        "type": "t_address"
      },
      {
        "astId": 122,
        "contract": "contracts/SCM.sol:SCM",
        "label": "__gap",
        "offset": 0,
        "slot": "52",
        "type": "t_array(t_uint256)49_storage"
      },
      {
        "astId": 1300,
        "contract": "contracts/SCM.sol:SCM",
        "label": "_name",
        "offset": 0,
        "slot": "101",
        "type": "t_string_storage"
      },
      {
        "astId": 1302,
        "contract": "contracts/SCM.sol:SCM",
        "label": "_symbol",
        "offset": 0,
        "slot": "102",
        "type": "t_string_storage"
      },
      {
        "astId": 1304,
        "contract": "contracts/SCM.sol:SCM",
        "label": "_decimals",
        "offset": 0,
        "slot": "103",
        "type": "t_uint8"
      },
      {
        "astId": 1307,
        "contract": "contracts/SCM.sol:SCM",
        "label": "MAX_UINT256",
        "offset": 0,
        "slot": "104",
        "type": "t_uint256"
      },
      {
        "astId": 1309,
        "contract": "contracts/SCM.sol:SCM",
        "label": "DECIMALS",
        "offset": 0,
        "slot": "105",
        "type": "t_uint256"
      },
      {
        "astId": 1311,
        "contract": "contracts/SCM.sol:SCM",
        "label": "RATE_DECIMALS",
        "offset": 0,
        "slot": "106",
        "type": "t_uint8"
      },
      {
        "astId": 1313,
        "contract": "contracts/SCM.sol:SCM",
        "label": "TOTAL_GONS",
        "offset": 0,
        "slot": "107",
        "type": "t_uint256"
      },
      {
        "astId": 1315,
        "contract": "contracts/SCM.sol:SCM",
        "label": "MAX_SUPPLY",
        "offset": 0,
        "slot": "108",
        "type": "t_uint256"
      },
      {
        "astId": 1317,
        "contract": "contracts/SCM.sol:SCM",
        "label": "INITIAL_FRAGMENTS_SUPPLY",
        "offset": 0,
        "slot": "109",
        "type": "t_uint256"
      },
      {
        "astId": 1319,
        "contract": "contracts/SCM.sol:SCM",
        "label": "_totalSupply",
        "offset": 0,
        "slot": "110",
        "type": "t_uint256"
      },
      {
        "astId": 1321,
        "contract": "contracts/SCM.sol:SCM",
        "label": "_gonsPerFragment",
        "offset": 0,
        "slot": "111",
        "type": "t_uint256"
      },
      {
        "astId": 1324,
        "contract": "contracts/SCM.sol:SCM",
        "label": "burnFee",
        "offset": 0,
        "slot": "112",
        "type": "t_uint256"
      },
      {
        "astId": 1326,
        "contract": "contracts/SCM.sol:SCM",
        "label": "feeDenominator",
        "offset": 0,
        "slot": "113",
        "type": "t_uint256"
      },
      {
        "astId": 1328,
        "contract": "contracts/SCM.sol:SCM",
        "label": "DEAD",
        "offset": 0,
        "slot": "114",
        "type": "t_address"
      },
      {
        "astId": 1330,
        "contract": "contracts/SCM.sol:SCM",
        "label": "ZERO",
        "offset": 0,
        "slot": "115",
        "type": "t_address"
      },
      {
        "astId": 1332,
        "contract": "contracts/SCM.sol:SCM",
        "label": "blackHole",
        "offset": 0,
        "slot": "116",
        "type": "t_address"
      },
      {
        "astId": 1335,
        "contract": "contracts/SCM.sol:SCM",
        "label": "liquidityFloorValueFundBuyFee",
        "offset": 0,
        "slot": "117",
        "type": "t_uint256"
      },
      {
        "astId": 1337,
        "contract": "contracts/SCM.sol:SCM",
        "label": "treasuryBuyFee",
        "offset": 0,
        "slot": "118",
        "type": "t_uint256"
      },
      {
        "astId": 1339,
        "contract": "contracts/SCM.sol:SCM",
        "label": "liquidityBuyFee",
        "offset": 0,
        "slot": "119",
        "type": "t_uint256"
      },
      {
        "astId": 1341,
        "contract": "contracts/SCM.sol:SCM",
        "label": "totalBuyFee",
        "offset": 0,
        "slot": "120",
        "type": "t_uint256"
      },
      {
        "astId": 1344,
        "contract": "contracts/SCM.sol:SCM",
        "label": "liquidityFloorValueFundSellFee",
        "offset": 0,
        "slot": "121",
        "type": "t_uint256"
      },
      {
        "astId": 1346,
        "contract": "contracts/SCM.sol:SCM",
        "label": "treasurySellFee",
        "offset": 0,
        "slot": "122",
        "type": "t_uint256"
      },
      {
        "astId": 1348,
        "contract": "contracts/SCM.sol:SCM",
        "label": "liquiditySellFee",
        "offset": 0,
        "slot": "123",
        "type": "t_uint256"
      },
      {
        "astId": 1350,
        "contract": "contracts/SCM.sol:SCM",
        "label": "totalSellFee",
        "offset": 0,
        "slot": "124",
        "type": "t_uint256"
      },
      {
        "astId": 1353,
        "contract": "contracts/SCM.sol:SCM",
        "label": "autoLiquidityReceiver",
        "offset": 0,
        "slot": "125",
        "type": "t_address"
      },
      {
        "astId": 1355,
        "contract": "contracts/SCM.sol:SCM",
        "label": "treasury",
        "offset": 0,
        "slot": "126",
        "type": "t_address"
      },
      {
        "astId": 1357,
        "contract": "contracts/SCM.sol:SCM",
        "label": "liquidityFloorValueFund",
        "offset": 0,
        "slot": "127",
        "type": "t_address"
      },
      {
        "astId": 1359,
        "contract": "contracts/SCM.sol:SCM",
        "label": "pair",
        "offset": 0,
        "slot": "128",
        "type": "t_address"
      },
      {
        "astId": 1361,
        "contract": "contracts/SCM.sol:SCM",
        "label": "pairAddress",
        "offset": 0,
        "slot": "129",
        "type": "t_address"
      },
      {
        "astId": 1364,
        "contract": "contracts/SCM.sol:SCM",
        "label": "router",
        "offset": 0,
        "slot": "130",
        "type": "t_contract(IUniswapV2Router02)1286"
      },
      {
        "astId": 1367,
        "contract": "contracts/SCM.sol:SCM",
        "label": "pairContract",
        "offset": 0,
        "slot": "131",
        "type": "t_contract(IUniswapV2Pair)890"
      },
      {
        "astId": 1369,
        "contract": "contracts/SCM.sol:SCM",
        "label": "inSwap",
        "offset": 20,
        "slot": "131",
        "type": "t_bool"
      },
      {
        "astId": 1371,
        "contract": "contracts/SCM.sol:SCM",
        "label": "_autoRebase",
        "offset": 21,
        "slot": "131",
        "type": "t_bool"
      },
      {
        "astId": 1373,
        "contract": "contracts/SCM.sol:SCM",
        "label": "_autoAddLiquidity",
        "offset": 22,
        "slot": "131",
        "type": "t_bool"
      },
      {
        "astId": 1375,
        "contract": "contracts/SCM.sol:SCM",
        "label": "_rebasePercentage",
        "offset": 0,
        "slot": "132",
        "type": "t_uint256"
      },
      {
        "astId": 1377,
        "contract": "contracts/SCM.sol:SCM",
        "label": "_initRebaseStartTime",
        "offset": 0,
        "slot": "133",
        "type": "t_uint256"
      },
      {
        "astId": 1379,
        "contract": "contracts/SCM.sol:SCM",
        "label": "_lastRebasedTime",
        "offset": 0,
        "slot": "134",
        "type": "t_uint256"
      },
      {
        "astId": 1381,
        "contract": "contracts/SCM.sol:SCM",
        "label": "_lastAddLiquidityTime",
        "offset": 0,
        "slot": "135",
        "type": "t_uint256"
      },
      {
        "astId": 1383,
        "contract": "contracts/SCM.sol:SCM",
        "label": "rebaseRate",
        "offset": 0,
        "slot": "136",
        "type": "t_uint256"
      },
      {
        "astId": 1385,
        "contract": "contracts/SCM.sol:SCM",
        "label": "liquiditySwapRate",
        "offset": 0,
        "slot": "137",
        "type": "t_uint256"
      },
      {
        "astId": 1389,
        "contract": "contracts/SCM.sol:SCM",
        "label": "_gonBalances",
        "offset": 0,
        "slot": "138",
        "type": "t_mapping(t_address,t_uint256)"
      },
      {
        "astId": 1395,
        "contract": "contracts/SCM.sol:SCM",
        "label": "_allowedFragments",
        "offset": 0,
        "slot": "139",
        "type": "t_mapping(t_address,t_mapping(t_address,t_uint256))"
      },
      {
        "astId": 1399,
        "contract": "contracts/SCM.sol:SCM",
        "label": "blacklist",
        "offset": 0,
        "slot": "140",
        "type": "t_mapping(t_address,t_bool)"
      },
      {
        "astId": 1403,
        "contract": "contracts/SCM.sol:SCM",
        "label": "_isFeeExempt",
        "offset": 0,
        "slot": "141",
        "type": "t_mapping(t_address,t_bool)"
      }
    ],
    "types": {
      "t_address": {
        "encoding": "inplace",
        "label": "address",
        "numberOfBytes": "20"
      },
      "t_array(t_uint256)49_storage": {
        "base": "t_uint256",
        "encoding": "inplace",
        "label": "uint256[49]",
        "numberOfBytes": "1568"
      },
      "t_array(t_uint256)50_storage": {
        "base": "t_uint256",
        "encoding": "inplace",
        "label": "uint256[50]",
        "numberOfBytes": "1600"
      },
      "t_bool": {
        "encoding": "inplace",
        "label": "bool",
        "numberOfBytes": "1"
      },
      "t_contract(IUniswapV2Pair)890": {
        "encoding": "inplace",
        "label": "contract IUniswapV2Pair",
        "numberOfBytes": "20"
      },
      "t_contract(IUniswapV2Router02)1286": {
        "encoding": "inplace",
        "label": "contract IUniswapV2Router02",
        "numberOfBytes": "20"
      },
      "t_mapping(t_address,t_bool)": {
        "encoding": "mapping",
        "key": "t_address",
        "label": "mapping(address => bool)",
        "numberOfBytes": "32",
        "value": "t_bool"
      },
      "t_mapping(t_address,t_mapping(t_address,t_uint256))": {
        "encoding": "mapping",
        "key": "t_address",
        "label": "mapping(address => mapping(address => uint256))",
        "numberOfBytes": "32",
        "value": "t_mapping(t_address,t_uint256)"
      },
      "t_mapping(t_address,t_uint256)": {
        "encoding": "mapping",
        "key": "t_address",
        "label": "mapping(address => uint256)",
        "numberOfBytes": "32",
        "value": "t_uint256"
      },
      "t_string_storage": {
        "encoding": "bytes",
        "label": "string",
        "numberOfBytes": "32"
      },
      "t_uint256": {
        "encoding": "inplace",
        "label": "uint256",
        "numberOfBytes": "32"
      },
      "t_uint8": {
        "encoding": "inplace",
        "label": "uint8",
        "numberOfBytes": "1"
      }
    }
  }
}