{
  "address": "0x78111B407845131FB838d1A0Ad0105677Ff4aDF8",
  "abi": [
    {
      "inputs": [
        {
          "internalType": "address",
          "name": "_router",
          "type": "address"
        }
      ],
      "stateMutability": "nonpayable",
      "type": "constructor"
    },
    {
      "anonymous": false,
      "inputs": [
        {
          "indexed": true,
          "internalType": "address",
          "name": "owner",
          "type": "address"
        },
        {
          "indexed": true,
          "internalType": "address",
          "name": "spender",
          "type": "address"
        },
        {
          "indexed": false,
          "internalType": "uint256",
          "name": "value",
          "type": "uint256"
        }
      ],
      "name": "Approval",
      "type": "event"
    },
    {
      "anonymous": false,
      "inputs": [
        {
          "indexed": true,
          "internalType": "uint256",
          "name": "epoch",
          "type": "uint256"
        },
        {
          "indexed": false,
          "internalType": "uint256",
          "name": "totalSupply",
          "type": "uint256"
        }
      ],
      "name": "LogRebase",
      "type": "event"
    },
    {
      "anonymous": false,
      "inputs": [
        {
          "indexed": true,
          "internalType": "address",
          "name": "previousOwner",
          "type": "address"
        },
        {
          "indexed": true,
          "internalType": "address",
          "name": "newOwner",
          "type": "address"
        }
      ],
      "name": "OwnershipTransferred",
      "type": "event"
    },
    {
      "anonymous": false,
      "inputs": [
        {
          "indexed": true,
          "internalType": "address",
          "name": "from",
          "type": "address"
        },
        {
          "indexed": true,
          "internalType": "address",
          "name": "to",
          "type": "address"
        },
        {
          "indexed": false,
          "internalType": "uint256",
          "name": "value",
          "type": "uint256"
        }
      ],
      "name": "Transfer",
      "type": "event"
    },
    {
      "inputs": [],
      "name": "DECIMALS",
      "outputs": [
        {
          "internalType": "uint256",
          "name": "",
          "type": "uint256"
        }
      ],
      "stateMutability": "view",
      "type": "function"
    },
    {
      "inputs": [],
      "name": "MAX_UINT256",
      "outputs": [
        {
          "internalType": "uint256",
          "name": "",
          "type": "uint256"
        }
      ],
      "stateMutability": "view",
      "type": "function"
    },
    {
      "inputs": [],
      "name": "RATE_DECIMALS",
      "outputs": [
        {
          "internalType": "uint8",
          "name": "",
          "type": "uint8"
        }
      ],
      "stateMutability": "view",
      "type": "function"
    },
    {
      "inputs": [],
      "name": "_autoAddLiquidity",
      "outputs": [
        {
          "internalType": "bool",
          "name": "",
          "type": "bool"
        }
      ],
      "stateMutability": "view",
      "type": "function"
    },
    {
      "inputs": [],
      "name": "_autoRebase",
      "outputs": [
        {
          "internalType": "bool",
          "name": "",
          "type": "bool"
        }
      ],
      "stateMutability": "view",
      "type": "function"
    },
    {
      "inputs": [],
      "name": "_decimals",
      "outputs": [
        {
          "internalType": "uint8",
          "name": "",
          "type": "uint8"
        }
      ],
      "stateMutability": "view",
      "type": "function"
    },
    {
      "inputs": [],
      "name": "_initRebaseStartTime",
      "outputs": [
        {
          "internalType": "uint256",
          "name": "",
          "type": "uint256"
        }
      ],
      "stateMutability": "view",
      "type": "function"
    },
    {
      "inputs": [],
      "name": "_lastAddLiquidityTime",
      "outputs": [
        {
          "internalType": "uint256",
          "name": "",
          "type": "uint256"
        }
      ],
      "stateMutability": "view",
      "type": "function"
    },
    {
      "inputs": [],
      "name": "_lastRebasedTime",
      "outputs": [
        {
          "internalType": "uint256",
          "name": "",
          "type": "uint256"
        }
      ],
      "stateMutability": "view",
      "type": "function"
    },
    {
      "inputs": [],
      "name": "_name",
      "outputs": [
        {
          "internalType": "string",
          "name": "",
          "type": "string"
        }
      ],
      "stateMutability": "view",
      "type": "function"
    },
    {
      "inputs": [],
      "name": "_rebasePercentage",
      "outputs": [
        {
          "internalType": "uint256",
          "name": "",
          "type": "uint256"
        }
      ],
      "stateMutability": "view",
      "type": "function"
    },
    {
      "inputs": [],
      "name": "_symbol",
      "outputs": [
        {
          "internalType": "string",
          "name": "",
          "type": "string"
        }
      ],
      "stateMutability": "view",
      "type": "function"
    },
    {
      "inputs": [],
      "name": "_totalSupply",
      "outputs": [
        {
          "internalType": "uint256",
          "name": "",
          "type": "uint256"
        }
      ],
      "stateMutability": "view",
      "type": "function"
    },
    {
      "inputs": [
        {
          "internalType": "address",
          "name": "owner_",
          "type": "address"
        },
        {
          "internalType": "address",
          "name": "spender",
          "type": "address"
        }
      ],
      "name": "allowance",
      "outputs": [
        {
          "internalType": "uint256",
          "name": "",
          "type": "uint256"
        }
      ],
      "stateMutability": "view",
      "type": "function"
    },
    {
      "inputs": [
        {
          "internalType": "address",
          "name": "spender",
          "type": "address"
        },
        {
          "internalType": "uint256",
          "name": "value",
          "type": "uint256"
        }
      ],
      "name": "approve",
      "outputs": [
        {
          "internalType": "bool",
          "name": "",
          "type": "bool"
        }
      ],
      "stateMutability": "nonpayable",
      "type": "function"
    },
    {
      "inputs": [],
      "name": "autoLiquidityReceiver",
      "outputs": [
        {
          "internalType": "address",
          "name": "",
          "type": "address"
        }
      ],
      "stateMutability": "view",
      "type": "function"
    },
    {
      "inputs": [
        {
          "internalType": "address",
          "name": "who",
          "type": "address"
        }
      ],
      "name": "balanceOf",
      "outputs": [
        {
          "internalType": "uint256",
          "name": "",
          "type": "uint256"
        }
      ],
      "stateMutability": "view",
      "type": "function"
    },
    {
      "inputs": [],
      "name": "blackHole",
      "outputs": [
        {
          "internalType": "address",
          "name": "",
          "type": "address"
        }
      ],
      "stateMutability": "view",
      "type": "function"
    },
    {
      "inputs": [
        {
          "internalType": "address",
          "name": "",
          "type": "address"
        }
      ],
      "name": "blacklist",
      "outputs": [
        {
          "internalType": "bool",
          "name": "",
          "type": "bool"
        }
      ],
      "stateMutability": "view",
      "type": "function"
    },
    {
      "inputs": [],
      "name": "burnFee",
      "outputs": [
        {
          "internalType": "uint256",
          "name": "",
          "type": "uint256"
        }
      ],
      "stateMutability": "view",
      "type": "function"
    },
    {
      "inputs": [
        {
          "internalType": "address",
          "name": "_addr",
          "type": "address"
        }
      ],
      "name": "checkFeeExempt",
      "outputs": [
        {
          "internalType": "bool",
          "name": "",
          "type": "bool"
        }
      ],
      "stateMutability": "view",
      "type": "function"
    },
    {
      "inputs": [],
      "name": "decimals",
      "outputs": [
        {
          "internalType": "uint8",
          "name": "",
          "type": "uint8"
        }
      ],
      "stateMutability": "view",
      "type": "function"
    },
    {
      "inputs": [
        {
          "internalType": "address",
          "name": "spender",
          "type": "address"
        },
        {
          "internalType": "uint256",
          "name": "subtractedValue",
          "type": "uint256"
        }
      ],
      "name": "decreaseAllowance",
      "outputs": [
        {
          "internalType": "bool",
          "name": "",
          "type": "bool"
        }
      ],
      "stateMutability": "nonpayable",
      "type": "function"
    },
    {
      "inputs": [],
      "name": "feeDenominator",
      "outputs": [
        {
          "internalType": "uint256",
          "name": "",
          "type": "uint256"
        }
      ],
      "stateMutability": "view",
      "type": "function"
    },
    {
      "inputs": [],
      "name": "getCirculatingSupply",
      "outputs": [
        {
          "internalType": "uint256",
          "name": "",
          "type": "uint256"
        }
      ],
      "stateMutability": "view",
      "type": "function"
    },
    {
      "inputs": [
        {
          "internalType": "uint256",
          "name": "accuracy",
          "type": "uint256"
        }
      ],
      "name": "getLiquidityBacking",
      "outputs": [
        {
          "internalType": "uint256",
          "name": "",
          "type": "uint256"
        }
      ],
      "stateMutability": "view",
      "type": "function"
    },
    {
      "inputs": [
        {
          "internalType": "address",
          "name": "spender",
          "type": "address"
        },
        {
          "internalType": "uint256",
          "name": "addedValue",
          "type": "uint256"
        }
      ],
      "name": "increaseAllowance",
      "outputs": [
        {
          "internalType": "bool",
          "name": "",
          "type": "bool"
        }
      ],
      "stateMutability": "nonpayable",
      "type": "function"
    },
    {
      "inputs": [
        {
          "internalType": "address",
          "name": "_router",
          "type": "address"
        }
      ],
      "name": "initialize",
      "outputs": [],
      "stateMutability": "nonpayable",
      "type": "function"
    },
    {
      "inputs": [],
      "name": "isNotInSwap",
      "outputs": [
        {
          "internalType": "bool",
          "name": "",
          "type": "bool"
        }
      ],
      "stateMutability": "view",
      "type": "function"
    },
    {
      "inputs": [],
      "name": "liquidityBuyFee",
      "outputs": [
        {
          "internalType": "uint256",
          "name": "",
          "type": "uint256"
        }
      ],
      "stateMutability": "view",
      "type": "function"
    },
    {
      "inputs": [],
      "name": "liquidityFloorValueFund",
      "outputs": [
        {
          "internalType": "address",
          "name": "",
          "type": "address"
        }
      ],
      "stateMutability": "view",
      "type": "function"
    },
    {
      "inputs": [],
      "name": "liquidityFloorValueFundBuyFee",
      "outputs": [
        {
          "internalType": "uint256",
          "name": "",
          "type": "uint256"
        }
      ],
      "stateMutability": "view",
      "type": "function"
    },
    {
      "inputs": [],
      "name": "liquidityFloorValueFundSellFee",
      "outputs": [
        {
          "internalType": "uint256",
          "name": "",
          "type": "uint256"
        }
      ],
      "stateMutability": "view",
      "type": "function"
    },
    {
      "inputs": [],
      "name": "liquiditySellFee",
      "outputs": [
        {
          "internalType": "uint256",
          "name": "",
          "type": "uint256"
        }
      ],
      "stateMutability": "view",
      "type": "function"
    },
    {
      "inputs": [],
      "name": "liquiditySwapRate",
      "outputs": [
        {
          "internalType": "uint256",
          "name": "",
          "type": "uint256"
        }
      ],
      "stateMutability": "view",
      "type": "function"
    },
    {
      "inputs": [],
      "name": "manualSync",
      "outputs": [],
      "stateMutability": "nonpayable",
      "type": "function"
    },
    {
      "inputs": [],
      "name": "name",
      "outputs": [
        {
          "internalType": "string",
          "name": "",
          "type": "string"
        }
      ],
      "stateMutability": "view",
      "type": "function"
    },
    {
      "inputs": [],
      "name": "owner",
      "outputs": [
        {
          "internalType": "address",
          "name": "",
          "type": "address"
        }
      ],
      "stateMutability": "view",
      "type": "function"
    },
    {
      "inputs": [],
      "name": "pair",
      "outputs": [
        {
          "internalType": "address",
          "name": "",
          "type": "address"
        }
      ],
      "stateMutability": "view",
      "type": "function"
    },
    {
      "inputs": [],
      "name": "pairAddress",
      "outputs": [
        {
          "internalType": "address",
          "name": "",
          "type": "address"
        }
      ],
      "stateMutability": "view",
      "type": "function"
    },
    {
      "inputs": [],
      "name": "pairContract",
      "outputs": [
        {
          "internalType": "contract IUniswapV2Pair",
          "name": "",
          "type": "address"
        }
      ],
      "stateMutability": "view",
      "type": "function"
    },
    {
      "inputs": [],
      "name": "rebaseRate",
      "outputs": [
        {
          "internalType": "uint256",
          "name": "",
          "type": "uint256"
        }
      ],
      "stateMutability": "view",
      "type": "function"
    },
    {
      "inputs": [],
      "name": "renounceOwnership",
      "outputs": [],
      "stateMutability": "nonpayable",
      "type": "function"
    },
    {
      "inputs": [],
      "name": "router",
      "outputs": [
        {
          "internalType": "contract IUniswapV2Router02",
          "name": "",
          "type": "address"
        }
      ],
      "stateMutability": "view",
      "type": "function"
    },
    {
      "inputs": [
        {
          "internalType": "bool",
          "name": "_flag",
          "type": "bool"
        }
      ],
      "name": "setAutoAddLiquidity",
      "outputs": [],
      "stateMutability": "nonpayable",
      "type": "function"
    },
    {
      "inputs": [
        {
          "internalType": "bool",
          "name": "_flag",
          "type": "bool"
        }
      ],
      "name": "setAutoRebase",
      "outputs": [],
      "stateMutability": "nonpayable",
      "type": "function"
    },
    {
      "inputs": [
        {
          "internalType": "address",
          "name": "_botAddress",
          "type": "address"
        },
        {
          "internalType": "bool",
          "name": "_flag",
          "type": "bool"
        }
      ],
      "name": "setBotBlacklist",
      "outputs": [],
      "stateMutability": "nonpayable",
      "type": "function"
    },
    {
      "inputs": [
        {
          "internalType": "address",
          "name": "_autoLiquidityReceiver",
          "type": "address"
        },
        {
          "internalType": "address",
          "name": "_treasuryReceiver",
          "type": "address"
        },
        {
          "internalType": "address",
          "name": "_liquidityFloorValueFundReceiver",
          "type": "address"
        }
      ],
      "name": "setFeeReceivers",
      "outputs": [],
      "stateMutability": "nonpayable",
      "type": "function"
    },
    {
      "inputs": [
        {
          "internalType": "address",
          "name": "_address",
          "type": "address"
        }
      ],
      "name": "setLP",
      "outputs": [],
      "stateMutability": "nonpayable",
      "type": "function"
    },
    {
      "inputs": [
        {
          "internalType": "uint256",
          "name": "newRate",
          "type": "uint256"
        }
      ],
      "name": "setLiquiditySwapRate",
      "outputs": [],
      "stateMutability": "nonpayable",
      "type": "function"
    },
    {
      "inputs": [
        {
          "internalType": "uint256",
          "name": "newMaxSupply",
          "type": "uint256"
        }
      ],
      "name": "setMaxSupply",
      "outputs": [],
      "stateMutability": "nonpayable",
      "type": "function"
    },
    {
      "inputs": [
        {
          "internalType": "address",
          "name": "_pairAddress",
          "type": "address"
        }
      ],
      "name": "setPairAddress",
      "outputs": [],
      "stateMutability": "nonpayable",
      "type": "function"
    },
    {
      "inputs": [
        {
          "internalType": "uint256",
          "name": "newPercentage",
          "type": "uint256"
        }
      ],
      "name": "setRebasePercentage",
      "outputs": [],
      "stateMutability": "nonpayable",
      "type": "function"
    },
    {
      "inputs": [
        {
          "internalType": "uint256",
          "name": "newRate",
          "type": "uint256"
        }
      ],
      "name": "setRebaseRate",
      "outputs": [],
      "stateMutability": "nonpayable",
      "type": "function"
    },
    {
      "inputs": [
        {
          "internalType": "uint256",
          "name": "lvf",
          "type": "uint256"
        },
        {
          "internalType": "uint256",
          "name": "treas",
          "type": "uint256"
        },
        {
          "internalType": "uint256",
          "name": "liq",
          "type": "uint256"
        },
        {
          "internalType": "uint256",
          "name": "brn",
          "type": "uint256"
        },
        {
          "internalType": "bool",
          "name": "buy",
          "type": "bool"
        }
      ],
      "name": "setTaxes",
      "outputs": [],
      "stateMutability": "nonpayable",
      "type": "function"
    },
    {
      "inputs": [
        {
          "internalType": "address",
          "name": "_addr",
          "type": "address"
        }
      ],
      "name": "setWhitelist",
      "outputs": [],
      "stateMutability": "nonpayable",
      "type": "function"
    },
    {
      "inputs": [],
      "name": "symbol",
      "outputs": [
        {
          "internalType": "string",
          "name": "",
          "type": "string"
        }
      ],
      "stateMutability": "view",
      "type": "function"
    },
    {
      "inputs": [],
      "name": "totalBuyFee",
      "outputs": [
        {
          "internalType": "uint256",
          "name": "",
          "type": "uint256"
        }
      ],
      "stateMutability": "view",
      "type": "function"
    },
    {
      "inputs": [],
      "name": "totalSellFee",
      "outputs": [
        {
          "internalType": "uint256",
          "name": "",
          "type": "uint256"
        }
      ],
      "stateMutability": "view",
      "type": "function"
    },
    {
      "inputs": [],
      "name": "totalSupply",
      "outputs": [
        {
          "internalType": "uint256",
          "name": "",
          "type": "uint256"
        }
      ],
      "stateMutability": "view",
      "type": "function"
    },
    {
      "inputs": [
        {
          "internalType": "address",
          "name": "to",
          "type": "address"
        },
        {
          "internalType": "uint256",
          "name": "value",
          "type": "uint256"
        }
      ],
      "name": "transfer",
      "outputs": [
        {
          "internalType": "bool",
          "name": "",
          "type": "bool"
        }
      ],
      "stateMutability": "nonpayable",
      "type": "function"
    },
    {
      "inputs": [
        {
          "internalType": "address",
          "name": "from",
          "type": "address"
        },
        {
          "internalType": "address",
          "name": "to",
          "type": "address"
        },
        {
          "internalType": "uint256",
          "name": "value",
          "type": "uint256"
        }
      ],
      "name": "transferFrom",
      "outputs": [
        {
          "internalType": "bool",
          "name": "",
          "type": "bool"
        }
      ],
      "stateMutability": "nonpayable",
      "type": "function"
    },
    {
      "inputs": [
        {
          "internalType": "address",
          "name": "newOwner",
          "type": "address"
        }
      ],
      "name": "transferOwnership",
      "outputs": [],
      "stateMutability": "nonpayable",
      "type": "function"
    },
    {
      "inputs": [],
      "name": "treasury",
      "outputs": [
        {
          "internalType": "address",
          "name": "",
          "type": "address"
        }
      ],
      "stateMutability": "view",
      "type": "function"
    },
    {
      "inputs": [],
      "name": "treasuryBuyFee",
      "outputs": [
        {
          "internalType": "uint256",
          "name": "",
          "type": "uint256"
        }
      ],
      "stateMutability": "view",
      "type": "function"
    },
    {
      "inputs": [],
      "name": "treasurySellFee",
      "outputs": [
        {
          "internalType": "uint256",
          "name": "",
          "type": "uint256"
        }
      ],
      "stateMutability": "view",
      "type": "function"
    },
    {
      "inputs": [],
      "name": "withdrawAllToTreasury",
      "outputs": [],
      "stateMutability": "nonpayable",
      "type": "function"
    },
    {
      "stateMutability": "payable",
      "type": "receive"
    }
  ],
  "transactionHash": "0xcd7ddb18b60366aba1ebbe5516f6c31dec548b9a57b730c978294fe498299731",
  "args": [
    "0x10ED43C718714eb63d5aA57B78B54704E256024E"
  ],
  "numDeployments": 1,
  "solcInputHash": "eac41f2c64a27172a5b12943b4d831dc",
  "bytecode": "0x60806040523480156200001157600080fd5b506040516200348c3803806200348c83398101604081905262000034916200003b565b506200006d565b6000602082840312156200004e57600080fd5b81516001600160a01b03811681146200006657600080fd5b9392505050565b61340f806200007d6000396000f3fe6080604052600436106104185760003560e01c8063854cff2f11610228578063bd59558111610128578063d7c01032116100bb578063f2fde38b1161008a578063f887ea401161006f578063f887ea4014610b94578063f9f92be414610bb4578063fce589d814610be457600080fd5b8063f2fde38b14610b5e578063f44da02514610b7e57600080fd5b8063d7c0103214610ac2578063dd62ed3e14610ae2578063e15beb8014610b28578063ed0d213714610b4857600080fd5b8063cfbac92f116100f7578063cfbac92f14610a34578063d28d885214610a54578063d439979014610a69578063d51ed1c814610aa257600080fd5b8063bd595581146109c9578063c4d66de8146109de578063ca33e64c146109fe578063ccb6135814610a1e57600080fd5b80639e90f9aa116101bb578063a8b089821161018a578063aa020b981161016f578063aa020b981461097d578063afb9cf6d14610993578063b09f1266146109b457600080fd5b8063a8b089821461093d578063a9059cbb1461095d57600080fd5b80639e90f9aa146108bd578063a22d4832146108dd578063a457c2d7146108fd578063a8aa1b311461091d57600080fd5b80639b2912cc116101f75780639b2912cc1461085b5780639b4eaff3146108715780639b87676c146108915780639d9241ec146108a757600080fd5b8063854cff2f146107e85780638da5cb5b1461080857806395d89b411461082657806396bb3d9c1461083b57600080fd5b806337c9be871161033357806361d027b3116102c657806370a0823111610295578063753d02a11161027a578063753d02a11461079d5780637cb95d00146107b257806383b4ac68146107c857600080fd5b806370a0823114610768578063715018a61461078857600080fd5b806361d027b3146106f15780636912652c146107115780636a2c3858146107325780636f8b44b01461074857600080fd5b806354307f141161030257806354307f141461068157806359b107b9146106a15780635a604c52146106b75780635bac988e146106d157600080fd5b806337c9be87146105f357806339509351146106135780633eaaf86b146106335780634d709adf1461064957600080fd5b80632b112e49116103ab578063313ce5671161037a578063313ce5671461058757806332424aa3146105ad57806332b75683146105c757806333a581d2146105dd57600080fd5b80632b112e49146105265780632c10508c1461053b5780632e0f2625146105515780632f34d2821461056757600080fd5b8063180b0d7e116103e7578063180b0d7e146104b957806318160ddd146104cf57806323b872dd146104e45780632602ad181461050457600080fd5b806306fdde0314610424578063095ea7b31461044f578063099d0d301461047f57806317b7c544146104a357600080fd5b3661041f57005b600080fd5b34801561043057600080fd5b50610439610bfa565b6040516104469190612eb4565b60405180910390f35b34801561045b57600080fd5b5061046f61046a366004612f1e565b610c8c565b6040519015158152602001610446565b34801561048b57600080fd5b50610495607b5481565b604051908152602001610446565b3480156104af57600080fd5b5061049560845481565b3480156104c557600080fd5b5061049560715481565b3480156104db57600080fd5b50606e54610495565b3480156104f057600080fd5b5061046f6104ff366004612f4a565b610cf9565b34801561051057600080fd5b5061052461051f366004612f8b565b610d8b565b005b34801561053257600080fd5b50610495610ddd565b34801561054757600080fd5b5061049560765481565b34801561055d57600080fd5b5061049560695481565b34801561057357600080fd5b50610524610582366004612fa4565b610e33565b34801561059357600080fd5b5060675460ff165b60405160ff9091168152602001610446565b3480156105b957600080fd5b5060675461059b9060ff1681565b3480156105d357600080fd5b5061049560865481565b3480156105e957600080fd5b5061049560685481565b3480156105ff57600080fd5b5061052461060e366004612fd6565b610e9d565b34801561061f57600080fd5b5061046f61062e366004612f1e565b610f84565b34801561063f57600080fd5b50610495606e5481565b34801561065557600080fd5b50608354610669906001600160a01b031681565b6040516001600160a01b039091168152602001610446565b34801561068d57600080fd5b50607f54610669906001600160a01b031681565b3480156106ad57600080fd5b5061049560785481565b3480156106c357600080fd5b50606a5461059b9060ff1681565b3480156106dd57600080fd5b506105246106ec36600461300b565b61100a565b3480156106fd57600080fd5b50607e54610669906001600160a01b031681565b34801561071d57600080fd5b5060835461046f90600160b01b900460ff1681565b34801561073e57600080fd5b5061049560755481565b34801561075457600080fd5b50610524610763366004612f8b565b6110d2565b34801561077457600080fd5b50610495610783366004612fa4565b61111f565b34801561079457600080fd5b50610524611146565b3480156107a957600080fd5b5061052461119a565b3480156107be57600080fd5b5061049560885481565b3480156107d457600080fd5b50608354600160a01b900460ff161561046f565b3480156107f457600080fd5b50610524610803366004612fa4565b611204565b34801561081457600080fd5b506033546001600160a01b0316610669565b34801561083257600080fd5b50610439611270565b34801561084757600080fd5b50610524610856366004612f8b565b61127f565b34801561086757600080fd5b5061049560875481565b34801561087d57600080fd5b5061052461088c366004612f8b565b6112cc565b34801561089d57600080fd5b5061049560855481565b3480156108b357600080fd5b50610495607c5481565b3480156108c957600080fd5b50607454610669906001600160a01b031681565b3480156108e957600080fd5b506105246108f8366004612fa4565b611319565b34801561090957600080fd5b5061046f610918366004612f1e565b611383565b34801561092957600080fd5b50608054610669906001600160a01b031681565b34801561094957600080fd5b50608154610669906001600160a01b031681565b34801561096957600080fd5b5061046f610978366004612f1e565b61146a565b34801561098957600080fd5b5061049560895481565b34801561099f57600080fd5b5060835461046f90600160a81b900460ff1681565b3480156109c057600080fd5b50610439611496565b3480156109d557600080fd5b50610524611524565b3480156109ea57600080fd5b506105246109f9366004612fa4565b611787565b348015610a0a57600080fd5b50607d54610669906001600160a01b031681565b348015610a2a57600080fd5b5061049560775481565b348015610a4057600080fd5b50610524610a4f366004613054565b611d84565b348015610a6057600080fd5b50610439611e0d565b348015610a7557600080fd5b5061046f610a84366004612fa4565b6001600160a01b03166000908152608d602052604090205460ff1690565b348015610aae57600080fd5b50610495610abd366004612f8b565b611e1a565b348015610ace57600080fd5b50610524610add36600461306f565b611e76565b348015610aee57600080fd5b50610495610afd3660046130ba565b6001600160a01b039182166000908152608b6020908152604080832093909416825291909152205490565b348015610b3457600080fd5b50610524610b43366004613054565b611efd565b348015610b5457600080fd5b50610495607a5481565b348015610b6a57600080fd5b50610524610b79366004612fa4565b611f87565b348015610b8a57600080fd5b5061049560795481565b348015610ba057600080fd5b50608254610669906001600160a01b031681565b348015610bc057600080fd5b5061046f610bcf366004612fa4565b608c6020526000908152604090205460ff1681565b348015610bf057600080fd5b5061049560705481565b606060658054610c09906130f3565b80601f0160208091040260200160405190810160405280929190818152602001828054610c35906130f3565b8015610c825780601f10610c5757610100808354040283529160200191610c82565b820191906000526020600020905b815481529060010190602001808311610c6557829003601f168201915b5050505050905090565b336000818152608b602090815260408083206001600160a01b038716808552925280832085905551919290917f8c5be1e5ebec7d5bd14f71427d1e84f3dd0314c0f7b2291e5b200ac8c7c3b92590610ce79086815260200190565b60405180910390a35060015b92915050565b6000826001600160a01b038116610d0f57600080fd5b6001600160a01b0385166000908152608b6020908152604080832033845290915290205460001914610d74576001600160a01b0385166000908152608b6020908152604080832033845290915281208054859290610d6e908490613143565b90915550505b610d7f858585612054565b50600195945050505050565b6033546001600160a01b03163314610dd85760405162461bcd60e51b815260206004820181905260248201526000805160206133ba83398151915260448201526064015b60405180910390fd5b608955565b606f546073546001600160a01b039081166000908152608a6020526040808220546072549093168252812054606b5491939291610e1a9190613143565b610e249190613143565b610e2e9190613170565b905090565b6033546001600160a01b03163314610e7b5760405162461bcd60e51b815260206004820181905260248201526000805160206133ba8339815191526044820152606401610dcf565b608380546001600160a01b0319166001600160a01b0392909216919091179055565b6033546001600160a01b03163314610ee55760405162461bcd60e51b815260206004820181905260248201526000805160206133ba8339815191526044820152606401610dcf565b813b610f595760405162461bcd60e51b815260206004820152603b60248201527f6f6e6c7920636f6e747261637420616464726573732c206e6f7420616c6c6f7760448201527f65642065787465726e616c6c79206f776e6564206163636f756e7400000000006064820152608401610dcf565b6001600160a01b03919091166000908152608c60205260409020805460ff1916911515919091179055565b336000908152608b602090815260408083206001600160a01b0386168452909152812054610fb3908390613184565b336000818152608b602090815260408083206001600160a01b038916808552908352928190208590555193845290927f8c5be1e5ebec7d5bd14f71427d1e84f3dd0314c0f7b2291e5b200ac8c7c3b9259101610ce7565b6033546001600160a01b031633146110525760405162461bcd60e51b815260206004820181905260248201526000805160206133ba8339815191526044820152606401610dcf565b60708290558015611096576075859055607684905560778390556070548361107a8688613184565b6110849190613184565b61108e9190613184565b6078556110cb565b6079859055607a849055607b839055607054836110b38688613184565b6110bd9190613184565b6110c79190613184565b607c555b5050505050565b6033546001600160a01b0316331461111a5760405162461bcd60e51b815260206004820181905260248201526000805160206133ba8339815191526044820152606401610dcf565b606c55565b606f546001600160a01b0382166000908152608a60205260408120549091610cf391613170565b6033546001600160a01b0316331461118e5760405162461bcd60e51b815260206004820181905260248201526000805160206133ba8339815191526044820152606401610dcf565b611198600061223d565b565b608060009054906101000a90046001600160a01b03166001600160a01b031663fff6cae96040518163ffffffff1660e01b8152600401600060405180830381600087803b1580156111ea57600080fd5b505af11580156111fe573d6000803e3d6000fd5b50505050565b6033546001600160a01b0316331461124c5760405162461bcd60e51b815260206004820181905260248201526000805160206133ba8339815191526044820152606401610dcf565b6001600160a01b03166000908152608d60205260409020805460ff19166001179055565b606060668054610c09906130f3565b6033546001600160a01b031633146112c75760405162461bcd60e51b815260206004820181905260248201526000805160206133ba8339815191526044820152606401610dcf565b608455565b6033546001600160a01b031633146113145760405162461bcd60e51b815260206004820181905260248201526000805160206133ba8339815191526044820152606401610dcf565b608855565b6033546001600160a01b031633146113615760405162461bcd60e51b815260206004820181905260248201526000805160206133ba8339815191526044820152606401610dcf565b608180546001600160a01b0319166001600160a01b0392909216919091179055565b336000908152608b602090815260408083206001600160a01b03861684529091528120548083106113d757336000908152608b602090815260408083206001600160a01b0388168452909152812055611406565b6113e18382613143565b336000908152608b602090815260408083206001600160a01b03891684529091529020555b336000818152608b602090815260408083206001600160a01b038916808552908352928190205490519081529192917f8c5be1e5ebec7d5bd14f71427d1e84f3dd0314c0f7b2291e5b200ac8c7c3b925910160405180910390a35060019392505050565b6000826001600160a01b03811661148057600080fd5b61148b338585612054565b506001949350505050565b606680546114a3906130f3565b80601f01602080910402602001604051908101604052809291908181526020018280546114cf906130f3565b801561151c5780601f106114f15761010080835404028352916020019161151c565b820191906000526020600020905b8154815290600101906020018083116114ff57829003601f168201915b505050505081565b6083805460ff60a01b1916600160a01b17905561153e3390565b6001600160a01b03166115596033546001600160a01b031690565b6001600160a01b03161461159d5760405162461bcd60e51b815260206004820181905260248201526000805160206133ba8339815191526044820152606401610dcf565b606f54306000908152608a602052604081205490916115bb91613170565b9050600081116116335760405162461bcd60e51b815260206004820152603160248201527f5468657265206973206e6f2053434d20746f6b656e206465706f73697465642060448201527f696e20746f6b656e20636f6e74726163740000000000000000000000000000006064820152608401610dcf565b60408051600280825260608201835260009260208301908036833701905050905030816000815181106116685761166861319c565b6001600160a01b03928316602091820292909201810191909152608254604080516315ab88c960e31b81529051919093169263ad5c46489260048083019391928290030181865afa1580156116c1573d6000803e3d6000fd5b505050506040513d601f19601f820116820180604052508101906116e591906131b2565b816001815181106116f8576116f861319c565b6001600160a01b039283166020918202929092010152608254607e5460405163791ac94760e01b81529183169263791ac9479261174492879260009288929091169042906004016131cf565b600060405180830381600087803b15801561175e57600080fd5b505af1158015611772573d6000803e3d6000fd5b50506083805460ff60a01b1916905550505050565b600054610100900460ff166117a25760005460ff16156117a6565b303b155b6118185760405162461bcd60e51b815260206004820152602e60248201527f496e697469616c697a61626c653a20636f6e747261637420697320616c72656160448201527f647920696e697469616c697a65640000000000000000000000000000000000006064820152608401610dcf565b600054610100900460ff1615801561183a576000805461ffff19166101011790555b61184261228f565b60408051808201909152601b8082527f53636f7270696f6e204361706974616c204d616e6167656d656e740000000000602090920191825261188691606591612e1b565b506040805180820190915260038082527f53434d000000000000000000000000000000000000000000000000000000000060209092019182526118cb91606691612e1b565b506067805460ff1990811660059081179092556000196068556069829055606a8054909116600717905561190090600a613324565b61190d906207a120613330565b606d81905560685461191f919061334f565b60685461192c9190613143565b606b5560695461193d90600a613324565b61194c9064012a05f200613330565b606c55600a60708190556103e86071556072805461dead6001600160a01b03199182168117909255607380548216905560748054909116909117905560286075819055603c607681905560778290556119a59082613184565b6119af9190613184565b6119b99190613184565b607855603c60798190556050607a8190556032607b8190556070549290916119e091613184565b6119ea9190613184565b6119f49190613184565b607c556105786084556102586088819055608955608280546001600160a01b0319166001600160a01b038416908117909155604080517fc45a0155000000000000000000000000000000000000000000000000000000008152905163c45a0155916004808201926020929091908290030181865afa158015611a7a573d6000803e3d6000fd5b505050506040513d601f19601f82011682018060405250810190611a9e91906131b2565b6001600160a01b031663c9c65396608260009054906101000a90046001600160a01b03166001600160a01b031663ad5c46486040518163ffffffff1660e01b8152600401602060405180830381865afa158015611aff573d6000803e3d6000fd5b505050506040513d601f19601f82011682018060405250810190611b2391906131b2565b6040517fffffffff0000000000000000000000000000000000000000000000000000000060e084901b1681526001600160a01b0390911660048201523060248201526044016020604051808303816000875af1158015611b87573d6000803e3d6000fd5b505050506040513d601f19601f82011682018060405250810190611bab91906131b2565b608080546001600160a01b039283166001600160a01b0319918216178255607e805482167345799b5ef6247eb69e61d2f8fe77938ed2798be5178155607f80548316731e30ad8c2c6520590c04fbb248f0f37981b7069d179055607d80548316731077b5a4ce56de5e3bad3aa8dd4713b5bbb78f90179055306000908152608b602090815260408083206082548816845282528083206000199055945460818054861691881691821790556083805490951617909355606d54606e908155606b5492549095168152608a9092529190208190559054611c8991613170565b606f554260858190556086819055608755608380547fffffffffffffffffff0000ffffffffffffffffffffffffffffffffffffffffff16760101000000000000000000000000000000000000000000179055607e80546001600160a01b039081166000908152608d6020526040808220805460ff19908116600190811790925530845291909220805490911690911790559054611d26911661223d565b607e54606e546040519081526001600160a01b03909116906000907fddf252ad1be2c89b69c2b068fc378daa952ba7f163c4a11628f55a4df523b3ef9060200160405180910390a38015611d80576000805461ff00191690555b5050565b6033546001600160a01b03163314611dcc5760405162461bcd60e51b815260206004820181905260248201526000805160206133ba8339815191526044820152606401610dcf565b8015611df25760838054821515600160b01b0260ff60b01b199091161790554260875550565b6083805460ff60b01b1916600160b01b831515021790555b50565b606580546114a3906130f3565b606f546080546001600160a01b03166000908152608a602052604081205490918291611e469190613170565b9050611e50610ddd565b611e5a8285613330565b611e65906002613330565b611e6f9190613170565b9392505050565b6033546001600160a01b03163314611ebe5760405162461bcd60e51b815260206004820181905260248201526000805160206133ba8339815191526044820152606401610dcf565b607d80546001600160a01b039485166001600160a01b031991821617909155607e805493851693821693909317909255607f8054919093169116179055565b6033546001600160a01b03163314611f455760405162461bcd60e51b815260206004820181905260248201526000805160206133ba8339815191526044820152606401610dcf565b8015611f6b5760838054821515600160a81b0260ff60a81b199091161790554260865550565b60838054821515600160a81b0260ff60a81b1990911617905550565b6033546001600160a01b03163314611fcf5760405162461bcd60e51b815260206004820181905260248201526000805160206133ba8339815191526044820152606401610dcf565b6001600160a01b03811661204b5760405162461bcd60e51b815260206004820152602660248201527f4f776e61626c653a206e6577206f776e657220697320746865207a65726f206160448201527f64647265737300000000000000000000000000000000000000000000000000006064820152608401610dcf565b611e0a8161223d565b6001600160a01b0383166000908152608c602052604081205460ff1615801561209657506001600160a01b0383166000908152608c602052604090205460ff16155b6120e25760405162461bcd60e51b815260206004820152600c60248201527f696e5f626c61636b6c69737400000000000000000000000000000000000000006044820152606401610dcf565b608354600160a01b900460ff1615612106576120ff848484612302565b9050611e6f565b61210e61238f565b1561211b5761211b6123fa565b612123612590565b15612130576121306125e4565b6121386128d6565b1561214557612145612901565b6000606f54836121559190613330565b6001600160a01b0386166000908152608a6020526040812080549293508392909190612182908490613143565b90915550600090506121948686612bc0565b61219e57816121a9565b6121a9868684612c14565b6001600160a01b0386166000908152608a60205260408120805492935083929091906121d6908490613184565b92505081905550846001600160a01b0316866001600160a01b03167fddf252ad1be2c89b69c2b068fc378daa952ba7f163c4a11628f55a4df523b3ef606f54846122209190613170565b60405190815260200160405180910390a350600195945050505050565b603380546001600160a01b038381166001600160a01b0319831681179093556040519116919082907f8be0079c531659141344cd1fd0a4f28419497f9722a3daafe3b4186f6b6457e090600090a35050565b600054610100900460ff166122fa5760405162461bcd60e51b815260206004820152602b60248201527f496e697469616c697a61626c653a20636f6e7472616374206973206e6f74206960448201526a6e697469616c697a696e6760a81b6064820152608401610dcf565b611198612da7565b600080606f54836123139190613330565b6001600160a01b0386166000908152608a602052604090205490915061233a908290613143565b6001600160a01b038087166000908152608a6020526040808220939093559086168152205461236a908290613184565b6001600160a01b0385166000908152608a602052604090205550600190509392505050565b608354600090600160a81b900460ff1680156123ae5750606c54606e54105b80156123c557506080546001600160a01b03163314155b80156123db5750608354600160a01b900460ff16155b8015610e2e57506088546086546123f29190613184565b421015905090565b608354600160a01b900460ff161561240e57565b60006086544261241e9190613143565b90506000608854826124309190613170565b9050600061243f82600a613330565b905060005b828110156124a757606a5461245d9060ff16600a613363565b608454606a546124719060ff16600a613363565b61247b9190613184565b606e546124889190613330565b6124929190613170565b606e558061249f81613372565b915050612444565b50606e54606b546124b89190613170565b606f556088546124c89083613330565b6086546124d59190613184565b608655608354604080517ffff6cae900000000000000000000000000000000000000000000000000000000815290516001600160a01b039092169163fff6cae99160048082019260009290919082900301818387803b15801561253757600080fd5b505af115801561254b573d6000803e3d6000fd5b50505050807f72725a3b1e5bd622d6bcd1339bb31279c351abe8f541ac7fd320f24e1b1641f2606e5460405161258391815260200190565b60405180910390a2505050565b608354600090600160b01b900460ff1680156125b65750608354600160a01b900460ff16155b80156125cd57506080546001600160a01b03163314155b8015610e2e57506089546087546123f29190613184565b6083805460ff60a01b1916600160a01b179055606f54607d546001600160a01b03166000908152608a6020526040812054909161262091613170565b607d546001600160a01b03166000908152608a60205260408082205430835290822080549394509092909190612657908490613184565b9091555050607d546001600160a01b03166000908152608a60205260408120819055612684600283613170565b905060006126928284613143565b9050806000036126a4575050506128c7565b60408051600280825260608201835260009260208301908036833701905050905030816000815181106126d9576126d961319c565b6001600160a01b03928316602091820292909201810191909152608254604080516315ab88c960e31b81529051919093169263ad5c46489260048083019391928290030181865afa158015612732573d6000803e3d6000fd5b505050506040513d601f19601f8201168201806040525081019061275691906131b2565b816001815181106127695761276961319c565b6001600160a01b03928316602091820292909201015260825460405163791ac94760e01b81524792919091169063791ac947906127b39086906000908790309042906004016131cf565b600060405180830381600087803b1580156127cd57600080fd5b505af11580156127e1573d6000803e3d6000fd5b50505050600081476127f39190613143565b90506000851180156128055750600081115b156128bc57608254607d546040517ff305d7190000000000000000000000000000000000000000000000000000000081523060048201526024810188905260006044820181905260648201526001600160a01b0391821660848201524260a482015291169063f305d71990839060c40160606040518083038185885af1158015612893573d6000803e3d6000fd5b50505050506040513d601f19601f820116820180604052508101906128b8919061338b565b5050505b505042608755505050505b6083805460ff60a01b19169055565b608354600090600160a01b900460ff16158015610e2e5750506080546001600160a01b031633141590565b6083805460ff60a01b1916600160a01b179055606f54306000908152608a6020526040812054909161293291613170565b90508060000361294257506128c7565b60408051600280825260608201835247926000929190602083019080368337019050509050308160008151811061297b5761297b61319c565b6001600160a01b03928316602091820292909201810191909152608254604080516315ab88c960e31b81529051919093169263ad5c46489260048083019391928290030181865afa1580156129d4573d6000803e3d6000fd5b505050506040513d601f19601f820116820180604052508101906129f891906131b2565b81600181518110612a0b57612a0b61319c565b6001600160a01b03928316602091820292909201015260825460405163791ac94760e01b815291169063791ac94790612a519086906000908690309042906004016131cf565b600060405180830381600087803b158015612a6b57600080fd5b505af1158015612a7f573d6000803e3d6000fd5b5050505060008247612a919190613143565b90506000607954607554607a54607654612aab9190613184565b612ab59190613184565b612abf9190613184565b607a54607654612acf9190613184565b612ad99084613330565b612ae39190613170565b607e546040519192506001600160a01b03169082156108fc029083906000818181858888f19350505050158015612b1e573d6000803e3d6000fd5b506000607954607554607a54607654612b379190613184565b612b419190613184565b612b4b9190613184565b607954607554612b5b9190613184565b612b659085613330565b612b6f9190613170565b607f546040519192506001600160a01b03169082156108fc029083906000818181858888f19350505050158015612baa573d6000803e3d6000fd5b505050505050506083805460ff60a01b19169055565b6080546000906001600160a01b0384811691161480612bec57506080546001600160a01b038381169116145b8015611e6f575050506001600160a01b03166000908152608d602052604090205460ff161590565b607854607754607654607554608054600094939291906001600160a01b0390811690881603612c5257607c549350607b549250607a54915060795490505b607154600090612c628689613330565b612c6c9190613170565b905060715460705488612c7f9190613330565b612c899190613170565b6074546001600160a01b03166000908152608a602052604081208054909190612cb3908490613184565b9091555050607154612cc58585613184565b612ccf9089613330565b612cd99190613170565b306000908152608a602052604081208054909190612cf8908490613184565b9091555050607154612d0a8589613330565b612d149190613170565b607d546001600160a01b03166000908152608a602052604081208054909190612d3e908490613184565b9091555050606f5430906001600160a01b038b16907fddf252ad1be2c89b69c2b068fc378daa952ba7f163c4a11628f55a4df523b3ef90612d7f9085613170565b60405190815260200160405180910390a3612d9a8188613143565b9998505050505050505050565b600054610100900460ff16612e125760405162461bcd60e51b815260206004820152602b60248201527f496e697469616c697a61626c653a20636f6e7472616374206973206e6f74206960448201526a6e697469616c697a696e6760a81b6064820152608401610dcf565b6111983361223d565b828054612e27906130f3565b90600052602060002090601f016020900481019282612e495760008555612e8f565b82601f10612e6257805160ff1916838001178555612e8f565b82800160010185558215612e8f579182015b82811115612e8f578251825591602001919060010190612e74565b50612e9b929150612e9f565b5090565b5b80821115612e9b5760008155600101612ea0565b600060208083528351808285015260005b81811015612ee157858101830151858201604001528201612ec5565b81811115612ef3576000604083870101525b50601f01601f1916929092016040019392505050565b6001600160a01b0381168114611e0a57600080fd5b60008060408385031215612f3157600080fd5b8235612f3c81612f09565b946020939093013593505050565b600080600060608486031215612f5f57600080fd5b8335612f6a81612f09565b92506020840135612f7a81612f09565b929592945050506040919091013590565b600060208284031215612f9d57600080fd5b5035919050565b600060208284031215612fb657600080fd5b8135611e6f81612f09565b80358015158114612fd157600080fd5b919050565b60008060408385031215612fe957600080fd5b8235612ff481612f09565b915061300260208401612fc1565b90509250929050565b600080600080600060a0868803121561302357600080fd5b8535945060208601359350604086013592506060860135915061304860808701612fc1565b90509295509295909350565b60006020828403121561306657600080fd5b611e6f82612fc1565b60008060006060848603121561308457600080fd5b833561308f81612f09565b9250602084013561309f81612f09565b915060408401356130af81612f09565b809150509250925092565b600080604083850312156130cd57600080fd5b82356130d881612f09565b915060208301356130e881612f09565b809150509250929050565b600181811c9082168061310757607f821691505b60208210810361312757634e487b7160e01b600052602260045260246000fd5b50919050565b634e487b7160e01b600052601160045260246000fd5b6000828210156131555761315561312d565b500390565b634e487b7160e01b600052601260045260246000fd5b60008261317f5761317f61315a565b500490565b600082198211156131975761319761312d565b500190565b634e487b7160e01b600052603260045260246000fd5b6000602082840312156131c457600080fd5b8151611e6f81612f09565b600060a082018783526020878185015260a0604085015281875180845260c086019150828901935060005b8181101561321f5784516001600160a01b0316835293830193918301916001016131fa565b50506001600160a01b03969096166060850152505050608001529392505050565b600181815b8085111561327b5781600019048211156132615761326161312d565b8085161561326e57918102915b93841c9390800290613245565b509250929050565b60008261329257506001610cf3565b8161329f57506000610cf3565b81600181146132b557600281146132bf576132db565b6001915050610cf3565b60ff8411156132d0576132d061312d565b50506001821b610cf3565b5060208310610133831016604e8410600b84101617156132fe575081810a610cf3565b6133088383613240565b806000190482111561331c5761331c61312d565b029392505050565b6000611e6f8383613283565b600081600019048311821515161561334a5761334a61312d565b500290565b60008261335e5761335e61315a565b500690565b6000611e6f60ff841683613283565b6000600182016133845761338461312d565b5060010190565b6000806000606084860312156133a057600080fd5b835192506020840151915060408401519050925092509256fe4f776e61626c653a2063616c6c6572206973206e6f7420746865206f776e6572a26469706673582212209cb831229749b028d267f87a5b222791f88f0b328c495482621ba8b53192b6e464736f6c634300080d0033",
  "devdoc": {
    "kind": "dev",
    "methods": {
      "decimals()": {
        "details": "Returns the decimals places of the token."
      },
      "name()": {
        "details": "Returns the name of the token."
      },
      "owner()": {
        "details": "Returns the address of the current owner."
      },
      "renounceOwnership()": {
        "details": "Leaves the contract without owner. It will not be possible to call `onlyOwner` functions anymore. Can only be called by the current owner. NOTE: Renouncing ownership will leave the contract without an owner, thereby removing any functionality that is only available to the owner."
      },
      "symbol()": {
        "details": "Returns the symbol of the token."
      },
      "totalSupply()": {
        "details": "Returns the amount of tokens in existence."
      },
      "transferOwnership(address)": {
        "details": "Transfers ownership of the contract to a new account (`newOwner`). Can only be called by the current owner."
      }
    },
    "version": 1
  },
  "userdoc": {
    "events": {
      "LogRebase(uint256,uint256)": {
        "notice": "=== Events === "
      }
    },
    "kind": "user",
    "methods": {
      "MAX_UINT256()": {
        "notice": "=== Supply Variables === "
      },
      "_name()": {
        "notice": "=== ERC20 METADATA === "
      },
      "autoLiquidityReceiver()": {
        "notice": "Operational addresses"
      },
      "burnFee()": {
        "notice": "=== Tax Variables === "
      },
      "liquidityFloorValueFundBuyFee()": {
        "notice": "Buy Tax"
      },
      "liquidityFloorValueFundSellFee()": {
        "notice": "Sell tax"
      }
    },
    "version": 1
  },
  "storageLayout": {
    "storage": [
      {
        "astId": 130,
        "contract": "contracts/SCM.sol:SCM",
        "label": "_initialized",
        "offset": 0,
        "slot": "0",
        "type": "t_bool"
      },
      {
        "astId": 133,
        "contract": "contracts/SCM.sol:SCM",
        "label": "_initializing",
        "offset": 1,
        "slot": "0",
        "type": "t_bool"
      },
      {
        "astId": 481,
        "contract": "contracts/SCM.sol:SCM",
        "label": "__gap",
        "offset": 0,
        "slot": "1",
        "type": "t_array(t_uint256)50_storage"
      },
      {
        "astId": 10,
        "contract": "contracts/SCM.sol:SCM",
        "label": "_owner",
        "offset": 0,
        "slot": "51",
        "type": "t_address"
      },
      {
        "astId": 122,
        "contract": "contracts/SCM.sol:SCM",
        "label": "__gap",
        "offset": 0,
        "slot": "52",
        "type": "t_array(t_uint256)49_storage"
      },
      {
        "astId": 1300,
        "contract": "contracts/SCM.sol:SCM",
        "label": "_name",
        "offset": 0,
        "slot": "101",
        "type": "t_string_storage"
      },
      {
        "astId": 1302,
        "contract": "contracts/SCM.sol:SCM",
        "label": "_symbol",
        "offset": 0,
        "slot": "102",
        "type": "t_string_storage"
      },
      {
        "astId": 1304,
        "contract": "contracts/SCM.sol:SCM",
        "label": "_decimals",
        "offset": 0,
        "slot": "103",
        "type": "t_uint8"
      },
      {
        "astId": 1307,
        "contract": "contracts/SCM.sol:SCM",
        "label": "MAX_UINT256",
        "offset": 0,
        "slot": "104",
        "type": "t_uint256"
      },
      {
        "astId": 1309,
        "contract": "contracts/SCM.sol:SCM",
        "label": "DECIMALS",
        "offset": 0,
        "slot": "105",
        "type": "t_uint256"
      },
      {
        "astId": 1311,
        "contract": "contracts/SCM.sol:SCM",
        "label": "RATE_DECIMALS",
        "offset": 0,
        "slot": "106",
        "type": "t_uint8"
      },
      {
        "astId": 1313,
        "contract": "contracts/SCM.sol:SCM",
        "label": "TOTAL_GONS",
        "offset": 0,
        "slot": "107",
        "type": "t_uint256"
      },
      {
        "astId": 1315,
        "contract": "contracts/SCM.sol:SCM",
        "label": "MAX_SUPPLY",
        "offset": 0,
        "slot": "108",
        "type": "t_uint256"
      },
      {
        "astId": 1317,
        "contract": "contracts/SCM.sol:SCM",
        "label": "INITIAL_FRAGMENTS_SUPPLY",
        "offset": 0,
        "slot": "109",
        "type": "t_uint256"
      },
      {
        "astId": 1319,
        "contract": "contracts/SCM.sol:SCM",
        "label": "_totalSupply",
        "offset": 0,
        "slot": "110",
        "type": "t_uint256"
      },
      {
        "astId": 1321,
        "contract": "contracts/SCM.sol:SCM",
        "label": "_gonsPerFragment",
        "offset": 0,
        "slot": "111",
        "type": "t_uint256"
      },
      {
        "astId": 1324,
        "contract": "contracts/SCM.sol:SCM",
        "label": "burnFee",
        "offset": 0,
        "slot": "112",
        "type": "t_uint256"
      },
      {
        "astId": 1326,
        "contract": "contracts/SCM.sol:SCM",
        "label": "feeDenominator",
        "offset": 0,
        "slot": "113",
        "type": "t_uint256"
      },
      {
        "astId": 1328,
        "contract": "contracts/SCM.sol:SCM",
        "label": "DEAD",
        "offset": 0,
        "slot": "114",
        "type": "t_address"
      },
      {
        "astId": 1330,
        "contract": "contracts/SCM.sol:SCM",
        "label": "ZERO",
        "offset": 0,
        "slot": "115",
        "type": "t_address"
      },
      {
        "astId": 1332,
        "contract": "contracts/SCM.sol:SCM",
        "label": "blackHole",
        "offset": 0,
        "slot": "116",
        "type": "t_address"
      },
      {
        "astId": 1335,
        "contract": "contracts/SCM.sol:SCM",
        "label": "liquidityFloorValueFundBuyFee",
        "offset": 0,
        "slot": "117",
        "type": "t_uint256"
      },
      {
        "astId": 1337,
        "contract": "contracts/SCM.sol:SCM",
        "label": "treasuryBuyFee",
        "offset": 0,
        "slot": "118",
        "type": "t_uint256"
      },
      {
        "astId": 1339,
        "contract": "contracts/SCM.sol:SCM",
        "label": "liquidityBuyFee",
        "offset": 0,
        "slot": "119",
        "type": "t_uint256"
      },
      {
        "astId": 1341,
        "contract": "contracts/SCM.sol:SCM",
        "label": "totalBuyFee",
        "offset": 0,
        "slot": "120",
        "type": "t_uint256"
      },
      {
        "astId": 1344,
        "contract": "contracts/SCM.sol:SCM",
        "label": "liquidityFloorValueFundSellFee",
        "offset": 0,
        "slot": "121",
        "type": "t_uint256"
      },
      {
        "astId": 1346,
        "contract": "contracts/SCM.sol:SCM",
        "label": "treasurySellFee",
        "offset": 0,
        "slot": "122",
        "type": "t_uint256"
      },
      {
        "astId": 1348,
        "contract": "contracts/SCM.sol:SCM",
        "label": "liquiditySellFee",
        "offset": 0,
        "slot": "123",
        "type": "t_uint256"
      },
      {
        "astId": 1350,
        "contract": "contracts/SCM.sol:SCM",
        "label": "totalSellFee",
        "offset": 0,
        "slot": "124",
        "type": "t_uint256"
      },
      {
        "astId": 1353,
        "contract": "contracts/SCM.sol:SCM",
        "label": "autoLiquidityReceiver",
        "offset": 0,
        "slot": "125",
        "type": "t_address"
      },
      {
        "astId": 1355,
        "contract": "contracts/SCM.sol:SCM",
        "label": "treasury",
        "offset": 0,
        "slot": "126",
        "type": "t_address"
      },
      {
        "astId": 1357,
        "contract": "contracts/SCM.sol:SCM",
        "label": "liquidityFloorValueFund",
        "offset": 0,
        "slot": "127",
        "type": "t_address"
      },
      {
        "astId": 1359,
        "contract": "contracts/SCM.sol:SCM",
        "label": "pair",
        "offset": 0,
        "slot": "128",
        "type": "t_address"
      },
      {
        "astId": 1361,
        "contract": "contracts/SCM.sol:SCM",
        "label": "pairAddress",
        "offset": 0,
        "slot": "129",
        "type": "t_address"
      },
      {
        "astId": 1364,
        "contract": "contracts/SCM.sol:SCM",
        "label": "router",
        "offset": 0,
        "slot": "130",
        "type": "t_contract(IUniswapV2Router02)1286"
      },
      {
        "astId": 1367,
        "contract": "contracts/SCM.sol:SCM",
        "label": "pairContract",
        "offset": 0,
        "slot": "131",
        "type": "t_contract(IUniswapV2Pair)890"
      },
      {
        "astId": 1369,
        "contract": "contracts/SCM.sol:SCM",
        "label": "inSwap",
        "offset": 20,
        "slot": "131",
        "type": "t_bool"
      },
      {
        "astId": 1371,
        "contract": "contracts/SCM.sol:SCM",
        "label": "_autoRebase",
        "offset": 21,
        "slot": "131",
        "type": "t_bool"
      },
      {
        "astId": 1373,
        "contract": "contracts/SCM.sol:SCM",
        "label": "_autoAddLiquidity",
        "offset": 22,
        "slot": "131",
        "type": "t_bool"
      },
      {
        "astId": 1375,
        "contract": "contracts/SCM.sol:SCM",
        "label": "_rebasePercentage",
        "offset": 0,
        "slot": "132",
        "type": "t_uint256"
      },
      {
        "astId": 1377,
        "contract": "contracts/SCM.sol:SCM",
        "label": "_initRebaseStartTime",
        "offset": 0,
        "slot": "133",
        "type": "t_uint256"
      },
      {
        "astId": 1379,
        "contract": "contracts/SCM.sol:SCM",
        "label": "_lastRebasedTime",
        "offset": 0,
        "slot": "134",
        "type": "t_uint256"
      },
      {
        "astId": 1381,
        "contract": "contracts/SCM.sol:SCM",
        "label": "_lastAddLiquidityTime",
        "offset": 0,
        "slot": "135",
        "type": "t_uint256"
      },
      {
        "astId": 1383,
        "contract": "contracts/SCM.sol:SCM",
        "label": "rebaseRate",
        "offset": 0,
        "slot": "136",
        "type": "t_uint256"
      },
      {
        "astId": 1385,
        "contract": "contracts/SCM.sol:SCM",
        "label": "liquiditySwapRate",
        "offset": 0,
        "slot": "137",
        "type": "t_uint256"
      },
      {
        "astId": 1389,
        "contract": "contracts/SCM.sol:SCM",
        "label": "_gonBalances",
        "offset": 0,
        "slot": "138",
        "type": "t_mapping(t_address,t_uint256)"
      },
      {
        "astId": 1395,
        "contract": "contracts/SCM.sol:SCM",
        "label": "_allowedFragments",
        "offset": 0,
        "slot": "139",
        "type": "t_mapping(t_address,t_mapping(t_address,t_uint256))"
      },
      {
        "astId": 1399,
        "contract": "contracts/SCM.sol:SCM",
        "label": "blacklist",
        "offset": 0,
        "slot": "140",
        "type": "t_mapping(t_address,t_bool)"
      },
      {
        "astId": 1403,
        "contract": "contracts/SCM.sol:SCM",
        "label": "_isFeeExempt",
        "offset": 0,
        "slot": "141",
        "type": "t_mapping(t_address,t_bool)"
      }
    ],
    "types": {
      "t_address": {
        "encoding": "inplace",
        "label": "address",
        "numberOfBytes": "20"
      },
      "t_array(t_uint256)49_storage": {
        "base": "t_uint256",
        "encoding": "inplace",
        "label": "uint256[49]",
        "numberOfBytes": "1568"
      },
      "t_array(t_uint256)50_storage": {
        "base": "t_uint256",
        "encoding": "inplace",
        "label": "uint256[50]",
        "numberOfBytes": "1600"
      },
      "t_bool": {
        "encoding": "inplace",
        "label": "bool",
        "numberOfBytes": "1"
      },
      "t_contract(IUniswapV2Pair)890": {
        "encoding": "inplace",
        "label": "contract IUniswapV2Pair",
        "numberOfBytes": "20"
      },
      "t_contract(IUniswapV2Router02)1286": {
        "encoding": "inplace",
        "label": "contract IUniswapV2Router02",
        "numberOfBytes": "20"
      },
      "t_mapping(t_address,t_bool)": {
        "encoding": "mapping",
        "key": "t_address",
        "label": "mapping(address => bool)",
        "numberOfBytes": "32",
        "value": "t_bool"
      },
      "t_mapping(t_address,t_mapping(t_address,t_uint256))": {
        "encoding": "mapping",
        "key": "t_address",
        "label": "mapping(address => mapping(address => uint256))",
        "numberOfBytes": "32",
        "value": "t_mapping(t_address,t_uint256)"
      },
      "t_mapping(t_address,t_uint256)": {
        "encoding": "mapping",
        "key": "t_address",
        "label": "mapping(address => uint256)",
        "numberOfBytes": "32",
        "value": "t_uint256"
      },
      "t_string_storage": {
        "encoding": "bytes",
        "label": "string",
        "numberOfBytes": "32"
      },
      "t_uint256": {
        "encoding": "inplace",
        "label": "uint256",
        "numberOfBytes": "32"
      },
      "t_uint8": {
        "encoding": "inplace",
        "label": "uint8",
        "numberOfBytes": "1"
      }
    }
  }
}